:020000040800F2
:100000000080012089060008D9060008D9060008EA
:10001000D9060008D9060008D9060008000000002B
:10002000000000000000000000000000D9060008E9
:10003000D906000800000000D9060008D90600080B
:10004000D9060008D9060008D9060008D906000814
:10005000D9060008D9060008D9060008D906000804
:10006000D9060008D9060008D9060008D9060008F4
:10007000D9060008D9060008D9060008D9060008E4
:10008000D9060008D9060008D906000800000000BB
:10009000000000000000000000000000D906000879
:1000A000D9060008D9060008D9060008D9060008B4
:1000B000D9060008D9060008D9060008D9060008A4
:1000C000D9060008D9060008D9060008D906000894
:1000D000D9060008D9060008D9060008000000006B
:1000E0006D030008D9060008D906000800000000CA
:1000F000000000000000000000000000D906000819
:1001000000000000D9060008D9060008D90600083A
:1001100000000000000000000000000000000000DF
:10012000D9060008D9060008D9060008D906000833
:10013000D9060008000000000000000000000000D8
:10014000000000000000000000000000D9060008C8
:10015000D9060008D9060008D9060008D906000803
:10016000D9060008D90600080000000000000000C1
:10017000000000000000000000000000000000007F
:1001800000000000D9060008000000000000000088
:04019000D906000884
:1001940010B5054C237833B9044B13B10448AFF3BD
:1001A40000800123237010BD000000200000000027
:1001B4002407000808B5034B1BB103490348AFF3F8
:1001C400008008BD0000000004000020240700088F
:1001D40080B400AF114B1B68104A23F0070313606F
:1001E4000E4B0E4A1B6813600C4B1B680B4A43F4FE
:1001F400706313600A4B1B68094A43F001031360E0
:1002040000BF074B1B6803F00103002BF9D000BFAC
:1002140000BFBD465DF8047B704700BF003C024050
:100224000038024080B483B000AF0346FB7197F9F5
:100234000730002B0BDBFB7903F01F02074997F90A
:1002440007305B09012000FA02F241F8232000BFC5
:100254000C37BD465DF8047B704700BF00E100E049
:1002640080B483B000AF0346FB7197F90730002BCD
:100274000CDBFB7903F01F02074997F907305B0990
:10028400012000FA02F2603341F8232000BF0C374A
:10029400BD465DF8047B704700E100E080B483B0A4
:1002A40000AF03463960FB7197F90730002B0ADB76
:1002B4003B68DAB20C4997F907301201D2B20B4409
:1002C40083F800230AE03B68DAB20849FB7903F0BB
:1002D4000F03043B1201D2B20B441A7600BF0C3751
:1002E400BD465DF8047B704700E100E000ED00E0EE
:1002F40080B500AF194B5B6C184A43F480435364D8
:10030400174B5B69164A23F0F0035361144B5B6986
:10031400134A43F020035361124B1B68114A43F400
:10032400005313600F4B5B680E4A43F40053536051
:100334000C4BDB680B4A43F40053D360094B9B68B6
:10034400084A23F40053936001212820FFF7A6FFF5
:100354002820FFF767FF00BF80BD00BF00380240C0
:1003640000380140003C014080B500AF2820FFF771
:1003740077FF054B5B69044A43F400535361034B15
:1003840001221A6000BF80BD003C01401C00002017
:1003940090B482B000AF0446084611461A4623467C
:1003A400FB710346BB710B467B7113463B71FB79B2
:1003B400032B00F08E80032B00F3CE80012B02D0A0
:1003C400022B43D0C8E0674B1B68664A43F0010325
:1003D4001360654B1B687979BA79520001FA02F20D
:1003E4001146614A0B4313607B79012B22D15E4B8A
:1003F4001B687979BA795200013201FA02F2D243C8
:100404001146594A0B401360574B5B68BA79012176
:1004140001FA02F2D2431146534A0B405360524B45
:100424009B683979BA79520001FA02F211464E4AB0
:100434000B4393604C4BDB68397CBA79520001FA68
:1004440002F21146484A0B43D36085E0454B1B68D2
:10045400444A43F002031360444B1B687979BA7928
:10046400520001FA02F21146404A0B4313607B79B1
:10047400012B22D13D4B1B687979BA7952000132A4
:1004840001FA02F2D2431146384A0B401360374B4B
:100494005B68BA79012101FA02F2D2431146334A68
:1004A4000B405360314B9B683979BA79520001FA99
:1004B40002F211462D4A0B4393602C4BDB68397CC6
:1004C400BA79520001FA02F21146284A0B43D3606A
:1004D40042E0244B1B68234A43F004031360244B7B
:1004E4001B687979BA79520001FA02F21146204A5E
:1004F4000B4313607B79012B22D11D4B1B68797947
:10050400BA795200013201FA02F2D2431146184A72
:100514000B401360164B5B68BA79012101FA02F2B1
:10052400D2431146124A0B405360114B9B683979F0
:10053400BA79520001FA02F211460D4A0B43936054
:100544000B4BDB68397CBA79520001FA02F211468E
:10055400074A0B43D36000BF00BF0837BD4690BCB9
:10056400704700BF303802400000024000040240DF
:100574000008024080B483B000AF03460A46FB7112
:100584001346BB71FB79032B1CD0032B25DC012BF9
:1005940002D0022B0BD020E0134B5B69BA79012106
:1005A40001FA02F21146104A4B40536115E00F4B19
:1005B4005B69BA79012101FA02F211460B4A4B40F8
:1005C40053610AE00A4B5B69BA79012101FA02F22C
:1005D4001146074A4B40536100BF00BF0C37BD466C
:1005E4005DF8047B704700BF000002400004024035
:1005F4000008024080B584B002AFFFF7E9FDFFF7C1
:1006040077FE002300930023012205210120FFF738
:10061400BFFE00230093002300220D210320FFF7D7
:10062400B7FE0D4B1B68012BFBD105210120FFF701
:10063400A1FF00237B6002E07B6801337B607B6861
:10064400064A9342F8D905210120FFF793FF024B94
:1006540000221A60E5E700BF1C000020A08601000C
:1006640080B400AF064BD3F88830054A43F47003D6
:10067400C2F8883000BFBD465DF8047B704700BFF8
:1006840000ED00E0DFF834D00D480E490E4A002397
:1006940002E0D458C4500433C4188C42F9D30B4A32
:1006A4000B4C002301E013600432A242FBD3FFF79A
:1006B400D7FF00F011F8FFF79DFF7047008001207D
:1006C4000000002000000020440700080000002073
:1006D40020000020FEE7000070B50D4D0D4C641B9A
:1006E400A4100026A64209D10B4D0C4C00F018F8BA
:1006F400641BA4100026A64205D170BD55F8043B26
:1007040098470136EEE755F8043B98470136F2E77F
:100714003C0700083C0700083C07000840070008A5
:10072400F8B500BFF8BC08BC9E467047F8B500BFDA
:08073400F8BC08BC9E467047AA
:04073C00B9010008F7
:040740009501000817
:040000050800068960
:00000001FF
