:020000040800F2
:10000000008001202108000871080008710800081C
:10001000710800087108000871080008000000005D
:10002000000000000000000000000000710800084F
:10003000710800080000000071080008710800083D
:1000400071080008710800087108000871080008AC
:10005000710800087108000871080008710800089C
:10006000710800087108000871080008710800088C
:10007000710800087108000871080008710800087C
:1000800071080008710800087108000800000000ED
:1000900000000000000000000000000071080008DF
:1000A000710800087108000871080008710800084C
:1000B000710800087108000871080008710800083C
:1000C000710800087108000871080008710800082C
:1000D000710800087108000871080008000000009D
:1000E000710800087108000871080008000000008D
:1000F000000000000000000000000000710800087F
:10010000000000007108000871080008710800086C
:1001100000000000000000000000000000000000DF
:1001200071080008710800087108000871080008CB
:10013000710800080000000000000000000000003E
:10014000000000000000000000000000710800082E
:10015000710800087108000871080008710800089B
:10016000710800087108000800000000000000008D
:10017000000000000000000000000000000000007F
:1001800000000000710800080000000000000000EE
:0401900071080008EA
:1001940010B5054C237833B9044B13B10448AFF3BD
:1001A40000800123237010BD08000020000000001F
:1001B400BC08000808B5034B1BB103490348AFF35F
:1001C400008008BD000000000C000020BC080008EE
:1001D40080B400AF3C4B5A683B493C4B13404B60E6
:1001E400394B5B68384A43F4AA735360364B1B6837
:1001F400354A43F48033136000BF334B1B6803F468
:100204000033002BF9D0304B5B682F4A43F4800352
:1002140053602D4B1B682C4A43F08073136000BF5E
:10022400294B1B6803F00073002BF9D0284B1B6883
:10023400274A23F007031360254B1B68244A23F045
:1002440005031360224B1B68214A43F00203136029
:100254001F4B1B681E4A43F4706313601A4B9B6860
:10026400194A23F003039360174B9B68164A43F023
:1002740002039360144B9B68134A23F001039360B9
:1002840000BF114B9B6803F00803002BF9D00E4B01
:100294009B680D4A23F0F00393600B4B9B680A4A5A
:1002A40023F4E0539360084B9B68074A43F480535C
:1002B4009360054B9B68044A23F46043936000BF3A
:1002C400BD465DF8047B7047003802400080FCFFA7
:1002D400003C024080B584B002AF78607B68197836
:1002E4000023009300230122012000F0F3F87B682F
:1002F40059780023009300230122012000F0EAF83A
:100304007B6899780023009300230122022000F0E7
:10031400E1F87B68D97800230093002301220220AE
:1003240000F0D8F87B681979002300930023012298
:10033400022000F0CFF87B68597900230093002352
:100344000122022000F0C6F87B689979002300930B
:1003540000230122012000F0BDF800BF0837BD468C
:1003640080BD000080B586B000AF78600B46FB709E
:10037400414A07F10C0307CA03C31A80FB7807F14B
:100384001802134413F80C3CFB7500F07BF8FB7D5A
:1003940003F00103002B0AD0384B5B697A681278AA
:1003A400114601228A401146344A0B435361FB7DB6
:1003B40003F00203002B0AD0304B5B697A68527851
:1003C400114601228A4011462C4A0B435361FB7D9E
:1003D40003F00403002B0AD0294B5B697A689278F6
:1003E400114601228A401146254A0B435361FB7D85
:1003F40003F00803002B0AD0214B5B697A68D2789A
:10040400114601228A4011461D4A0B435361FB7D6C
:1004140003F01003002B0AD0194B5B697A68127938
:10042400114601228A401146154A0B435361FB7D54
:1004340003F02003002B0AD0114B5B697A685279D0
:10044400114601228A4011460D4A0B435361FB7D3C
:1004540003F04003002B0BD0084B5B697A68927958
:10046400114601228A401146044A0B43536100BFDE
:1004740000BF1837BD4680BDD40800080000024004
:100484000004024080B500AF01220921012000F0E0
:1004940013F901220821012000F00EF901220A219A
:1004A400012000F009F901220321022000F004F9DF
:1004B40001220421022000F0FFF80122052102207C
:1004C40000F0FAF801220A21022000F0F5F800BF3A
:1004D40080BD000090B482B000AF044608461146C7
:1004E4001A462346FB710346BB710B467B711346C8
:1004F4003B71FB79032B00F08E80032B00F3CE803D
:10050400012B02D0022B43D0C8E0674B1B68664A1C
:1005140043F001031360654B1B687979BA79520083
:1005240001FA02F21146614A0B4313607B79012BF5
:1005340022D15E4B1B687979BA795200013201FAF3
:1005440002F2D2431146594A0B401360574B5B6881
:10055400BA79012101FA02F2D2431146534A0B40FF
:100564005360524B9B683979BA79520001FA02F20E
:1005740011464E4A0B4393604C4BDB68397CBA7985
:10058400520001FA02F21146484A0B43D36085E057
:10059400454B1B68444A43F002031360444B1B68F9
:1005A4007979BA79520001FA02F21146404A0B43B2
:1005B40013607B79012B22D13D4B1B687979BA7981
:1005C4005200013201FA02F2D2431146384A0B407A
:1005D4001360374B5B68BA79012101FA02F2D24306
:1005E4001146334A0B405360314B9B683979BA79D1
:1005F400520001FA02F211462D4A0B4393602C4B30
:10060400DB68397CBA79520001FA02F21146284AB1
:100614000B43D36042E0244B1B68234A43F004039A
:100624001360244B1B687979BA79520001FA02F2FB
:100634001146204A0B4313607B79012B22D11D4BB9
:100644001B687979BA795200013201FA02F2D24375
:100654001146184A0B401360164B5B68BA790121A6
:1006640001FA02F2D2431146124A0B405360114B75
:100674009B683979BA79520001FA02F211460D4A9F
:100684000B4393600B4BDB68397CBA79520001FA57
:1006940002F21146074A0B43D36000BF00BF08377C
:1006A400BD4690BC704700BF303802400000024095
:1006B400000402400008024080B483B000AF034647
:1006C400FB710B46BB7113467B71FB79032B42D044
:1006D400032B5EDC012B02D0022B1ED059E07B7968
:1006E400002B02D0012B0BD053E02D4B5B69BA7960
:1006F400012101FA02F21146294A0B4353610BE02E
:10070400274B5B69BA79012101FA02F2D2431146FF
:10071400234A0B40536100BF3BE07B79002B02D09E
:10072400012B0BD035E01F4B5B69BA79012101FA2B
:1007340002F211461B4A0B4353610BE0194B5B69F0
:10074400BA79012101FA02F2D2431146154A0B404B
:10075400536100BF1DE07B79002B02D0012B0BD02D
:1007640016E0114B5B69BA79012101FA02F21146D4
:100774000D4A0B4353610BE00B4B5B69BA790121C2
:1007840001FA02F2D2431146074A0B40536100BFFB
:1007940000BF00BF0C37BD465DF8047B704700BF47
:1007A40000000240000402400008024080B582B00C
:1007B40000AFFFF70DFD0E48FFF78CFD0023FB7122
:1007C40011E0FB7919460A48FFF7CCFD00233B6092
:1007D40002E03B6801333B603B68064A9342F8D928
:1007E400FB790133FB71FB79092BEAD9E6E700BFFA
:1007F40000000020400D030080B400AF064BD3F886
:100804008830054A43F47003C2F8883000BFBD46FF
:100814005DF8047B704700BF00ED00E0DFF834D0E2
:100824000D480E490E4A002302E0D458C450043344
:10083400C4188C42F9D30B4A0B4C002301E013601B
:100844000432A242FBD3FFF7D7FF00F011F8FFF701
:10085400ADFF704700800120000000200800002048
:10086400E80800080800002024000020FEE700003B
:1008740070B50D4D0D4C641BA4100026A64209D181
:100884000B4D0C4C00F018F8641BA4100026A64273
:1008940005D170BD55F8043B98470136EEE755F88D
:1008A400043B98470136F2E7E0080008E008000836
:1008B400E0080008E4080008F8B500BFF8BC08BC6C
:1008C4009E467047F8B500BFF8BC08BC9E4670470A
:0C08D4003F065B04666D7D077F67000037
:0408E000B901000852
:0408E4009501000872
:0808E80009080A0405030A00D7
:0400000508000821C6
:00000001FF
