:020000040800F2
:1000000000800120110A0008610A0008610A000846
:10001000610A0008610A0008610A00080000000087
:10002000000000000000000000000000610A00085D
:10003000610A000800000000610A0008610A000867
:10004000610A0008610A0008610A0008610A0008E4
:10005000610A0008610A0008610A0008610A0008D4
:10006000610A0008610A0008610A0008610A0008C4
:10007000610A0008610A0008610A0008610A0008B4
:10008000610A0008610A0008610A00080000000017
:10009000000000000000000000000000610A0008ED
:1000A000610A0008610A0008610A0008610A000884
:1000B000CF080008610A0008610A0008610A000808
:1000C000610A0008610A0008610A0008610A000864
:1000D000610A0008610A0008610A000800000000C7
:1000E000610A0008610A0008610A000800000000B7
:1000F000000000000000000000000000610A00088D
:1001000000000000610A0008610A0008610A000896
:1001100000000000000000000000000000000000DF
:10012000610A0008610A0008610A0008610A000803
:10013000610A00080000000000000000000000004C
:10014000000000000000000000000000610A00083C
:10015000610A0008610A0008610A0008610A0008D3
:10016000610A0008610A00080000000000000000A9
:10017000000000000000000000000000000000007F
:1001800000000000610A00080000000000000000FC
:04019000610A0008F8
:1001940010B5054C237833B9044B13B10448AFF3BD
:1001A40000800123237010BD08000020000000001F
:1001B400AC0A000808B5034B1BB103490348AFF36D
:1001C400008008BD000000000C000020AC0A0008FC
:1001D40080B400AF114B1B68104A23F0070313606F
:1001E4000E4B0E4A1B6813600C4B1B680B4A43F4FE
:1001F400706313600A4B1B68094A43F001031360E0
:1002040000BF074B1B6803F00103002BF9D000BFAC
:1002140000BFBD465DF8047B704700BF003C024050
:100224000038024080B584B002AF78607B681978EA
:100234000023009300230122012000F05DF97B6874
:1002440059780023009300230122012000F054F97F
:100254007B6899780023009300230122022000F098
:100264004BF97B68D97800230093002301220220F4
:1002740000F042F97B6819790023009300230122DE
:10028400022000F039F97B68597900230093002398
:100294000122022000F030F97B6899790023009351
:1002A40000230122012000F027F9002300930023FA
:1002B40001220021012000F01FF9002300930023F4
:1002C40001220121012000F017F9002300930023EB
:1002D40001220421012000F00FF9002300930023E0
:1002E40001220021022000F007F900BF0837BD46B3
:1002F40080BD000080B586B000AF78600B46FB700F
:100304001346BB70654A07F10C0307CA03C31A807E
:10031400BB7807F11802134413F80C3CFB7500F08A
:10032400C3F8FB7D03F00103002B0AD05C4B5B692F
:100334007A681278114601228A401146584A0B43C2
:100344005361FB7D03F00203002B0AD0544B5B691D
:100354007A685278114601228A401146504A0B436A
:100364005361FB7D03F00403002B0AD04D4B5B6902
:100374007A689278114601228A401146494A0B4311
:100384005361FB7D03F00803002B0AD0454B5B69E6
:100394007A68D278114601228A401146414A0B43B9
:1003A4005361FB7D03F01003002B0AD03D4B5B69C6
:1003B4007A681279114601228A401146394A0B4360
:1003C4005361FB7D03F02003002B0AD0354B5B699E
:1003D4007A685279114601228A401146314A0B4308
:1003E4005361FB7D03F04003002B0AD02C4B5B6967
:1003F4007A689279114601228A401146284A0B43B1
:100404005361FB78012B0ED1264B5B69254A23F0FF
:1004140001035361012000F02DFA224B5B69214A4C
:1004240043F001035361FB78022B0ED11C4B5B6933
:100434001B4A23F010035361012000F01BFA184BF0
:100444005B69174A43F010035361FB78032B0ED109
:10045400134B5B69124A23F002035361012000F03D
:1004640009FA0F4B5B690E4A43F002035361FB78B0
:10047400042B0FD10A4B5B69094A23F00103536132
:10048400012000F0F7F9064B5B69054A43F00103CC
:10049400536100BF00BF1837BD4680BDC40A0008C1
:1004A400000002400004024080B500AF012209218F
:1004B400012000F013F901220821012000F00EF9B7
:1004C40001220A21012000F009F90122032102205E
:1004D40000F004F901220421022000F0FFF80122B7
:1004E4000521022000F0FAF801220A21022000F07E
:1004F400F5F800BF80BD000090B482B000AF0446A0
:10050400084611461A462346FB710346BB710B4647
:100514007B7113463B71FB79032B00F08E80032B18
:1005240000F3CE80012B02D0022B43D0C8E0674BEE
:100534001B68664A43F001031360654B1B687979B5
:10054400BA79520001FA02F21146614A0B43136070
:100554007B79012B22D15E4B1B687979BA795200E1
:10056400013201FA02F2D2431146594A0B40136098
:10057400574B5B68BA79012101FA02F2D243114662
:10058400534A0B405360524B9B683979BA795200F5
:1005940001FA02F211464E4A0B4393604C4BDB685E
:1005A400397CBA79520001FA02F21146484A0B43E7
:1005B400D36085E0454B1B68444A43F00203136053
:1005C400444B1B687979BA79520001FA02F2114658
:1005D400404A0B4313607B79012B22D13D4B1B68AE
:1005E4007979BA795200013201FA02F2D243114602
:1005F400384A0B401360374B5B68BA79012101FA22
:1006040002F2D2431146334A0B405360314B9B688C
:100614003979BA79520001FA02F211462D4A0B4394
:1006240093602C4BDB68397CBA79520001FA02F2F0
:100634001146284A0B43D36042E0244B1B68234AEB
:1006440043F004031360244B1B687979BA79520090
:1006540001FA02F21146204A0B4313607B79012B05
:1006640022D11D4B1B687979BA795200013201FA03
:1006740002F2D2431146184A0B401360164B5B68D2
:10068400BA79012101FA02F2D2431146124A0B400F
:100694005360114B9B683979BA79520001FA02F21E
:1006A40011460D4A0B4393600B4BDB68397CBA79D6
:1006B400520001FA02F21146074A0B43D36000BF0D
:1006C40000BF0837BD4690BC704700BF30380240B9
:1006D40000000240000402400008024080B483B0DD
:1006E40000AF0346FB710B46BB7113467B71FB796C
:1006F400032B42D0032B5EDC012B02D0022B1ED035
:1007040059E07B79002B02D0012B0BD053E02D4B09
:100714005B69BA79012101FA02F21146294A0B43B5
:1007240053610BE0274B5B69BA79012101FA02F2AC
:10073400D2431146234A0B40536100BF3BE07B790F
:10074400002B02D0012B0BD035E01F4B5B69BA792B
:10075400012101FA02F211461B4A0B4353610BE0DB
:10076400194B5B69BA79012101FA02F2D2431146AD
:10077400154A0B40536100BF1DE07B79002B02D06A
:10078400012B0BD016E0114B5B69BA79012101FAF8
:1007940002F211460D4A0B4353610BE00B4B5B69AC
:1007A400BA79012101FA02F2D2431146074A0B40F9
:1007B400536100BF00BF00BF0C37BD465DF8047B2A
:1007C400704700BF000002400004024000080240DD
:1007D40080B483B000AF0346FB7197F90730002B58
:1007E4000CDBFB7903F01F02074997F907305B091B
:1007F400012000FA02F2603341F8232000BF0C37D5
:10080400BD465DF8047B704700E100E080B483B02E
:1008140000AF7860164B1B6C154A43F00103136458
:100824004FF080431B684FF0804223F010031360A5
:100834004FF080431B684FF0804243F0080313607D
:100844004FF080435B684FF0804223F070035360A5
:100854004FF0804300229A624FF080427B68013B54
:10086400D36200BF0C37BD465DF8047B704700BF00
:100874000038024080B483B000AF78607A681346D1
:100884009B0013445B004FF08042013B93624FF0A6
:1008940080431B684FF0804243F00103136000BFA4
:1008A4004FF080431B6903F00103002BF8D04FF095
:1008B40080431B694FF0804223F00103136100BFA2
:1008C4000C37BD465DF8047B704780B500AF1C2033
:1008D400FFF77EFF4FF080431B694FF0804223F007
:1008E4000103136100BF80BD80B500AFFFF770FC4A
:1008F4003448FFF797FC4FF4C860FFF787FF324B8B
:100904001B68324AA2FB03239B09DAB2304B1A70EC
:100914002D4B1B682E4A127811464FF47A7202FB53
:1009240001F29B1A2B4AA2FB03235B09DAB22A4B7E
:100934001A70254B1B68284A12781146642202FB60
:1009440001F29B1A254AA2FB0323DB08DAB2244BEB
:100954001A701D4B1968214BA3FB0123DA081346B7
:100964009B0013445B00CA1AD2B21E4B1A701D4B73
:100974001B781A4601211348FFF7BCFC184B1B785F
:100984001A4602210F48FFF7B5FC134B1B781A4691
:1009940003210C48FFF7AEFC0D4B1B781A460421CB
:1009A4000848FFF7A7FC084B1B680133064A13608D
:1009B400054B1B6842F210729342A0D1024B0022F5
:1009C4001A609CE70000002028000020D34D62102C
:1009D400240000201F85EB512D000020CDCCCCCC71
:1009E4002C0000202E00002080B400AF064BD3F86A
:1009F4008830054A43F47003C2F8883000BFBD460E
:100A04005DF8047B704700BF00ED00E0DFF834D0F0
:100A14000D480E490E4A002302E0D458C450043352
:100A2400C4188C42F9D30B4A0B4C002301E0136029
:100A34000432A242FBD3FFF7D7FF00F011F8FFF70F
:100A440053FF7047008001200000002008000020B0
:100A5400D80A00080800002030000020FEE700004B
:100A640070B50D4D0D4C641BA4100026A64209D18F
:100A74000B4D0C4C00F018F8641BA4100026A64281
:100A840005D170BD55F8043B98470136EEE755F89B
:100A9400043B98470136F2E7D00A0008D00A000860
:100AA400D00A0008D40A0008F8B500BFF8BC08BC96
:100AB4009E467047F8B500BFF8BC08BC9E46704718
:0C0AC400C0F9A4B0999282F88090000064
:040AD000B901000860
:040AD4009501000880
:080AD80009080A0405030A00E5
:0400000508000A11D4
:00000001FF
