:020000040800F2
:1000000000800120E10300083104000831040008E9
:100010003104000831040008310400080000000029
:100020000000000000000000000000003104000893
:100030003104000800000000310400083104000809
:1000400031040008310400083104000831040008BC
:1000500031040008310400083104000831040008AC
:10006000310400083104000831040008310400089C
:10007000310400083104000831040008310400088C
:1000800031040008310400083104000800000000B9
:100090000000000000000000000000003104000823
:1000A000310400083104000831040008310400085C
:1000B000310400083104000831040008310400084C
:1000C000310400083104000831040008310400083C
:1000D0003104000831040008310400080000000069
:1000E0003104000831040008310400080000000059
:1000F00000000000000000000000000031040008C3
:100100000000000031040008310400083104000838
:1001100000000000000000000000000000000000DF
:1001200031040008310400083104000831040008DB
:100130003104000800000000000000000000000082
:100140000000000000000000000000003104000872
:1001500031040008310400083104000831040008AB
:100160003104000831040008000000000000000015
:10017000000000000000000000000000000000007F
:100180000000000031040008000000000000000032
:04019000310400082E
:1001940010B5054C237833B9044B13B10448AFF3BD
:1001A40000800123237010BD000000200000000027
:1001B4007C04000808B5034B1BB103490348AFF3A3
:1001C400008008BD00000000040000207C0400083A
:1001D40080B400AF3C4B5A683B493C4B13404B60E6
:1001E400394B5B68384A43F4AA735360364B1B6837
:1001F400354A43F48033136000BF334B1B6803F468
:100204000033002BF9D0304B5B682F4A43F4800352
:1002140053602D4B1B682C4A43F08073136000BF5E
:10022400294B1B6803F00073002BF9D0284B1B6883
:10023400274A23F007031360254B1B68244A23F045
:1002440005031360224B1B68214A43F00203136029
:100254001F4B1B681E4A43F4706313601A4B9B6860
:10026400194A23F003039360174B9B68164A43F023
:1002740002039360144B9B68134A23F001039360B9
:1002840000BF114B9B6803F00803002BF9D00E4B01
:100294009B680D4A23F0F00393600B4B9B680A4A5A
:1002A40023F4E0539360084B9B68074A43F480535C
:1002B4009360054B9B68044A23F46043936000BF3A
:1002C400BD465DF8047B7047003802400080FCFFA7
:1002D400003C024080B582B000AFFFF779FF00F028
:1002E4001DF8002000F04AF800237B6002E07B68E0
:1002F40001337B607B68084A9342F8D9012000F0FF
:100304003DF800233B6002E03B6801333B603B68FF
:10031400014A9342F8D9E4E7A086010080B400AF13
:10032400144B1B6B134A43F001031363124B1B68FA
:10033400114A43F4806313600F4B1B680E4A23F485
:10034400006313600C4B5B680B4A23F0200353607B
:10035400094B9B68084A23F440639360064BDB68AF
:10036400054A23F44063D36000BFBD465DF8047BB7
:10037400704700BF003802400000024080B483B0E0
:1003840000AF0346FB71FB79012B06D0094B5B6977
:10039400084A43F02003536106E0064B5B69054AB3
:1003A40023F02003536100BF00BF0C37BD465DF846
:1003B400047B70470000024080B400AF064BD3F8C2
:1003C4008830054A43F47003C2F8883000BFBD4644
:1003D4005DF8047B704700BF00ED00E0DFF834D027
:1003E4000D480E490E4A002302E0D458C450043389
:1003F400C4188C42F9D30B4A0B4C002301E0136060
:100404000432A242FBD3FFF7D7FF00F011F8FFF745
:1004140061FF7047008001200000002000000020E0
:100424009C040008000000201C000020FEE70000DF
:1004340070B50D4D0D4C641BA4100026A64209D1C5
:100444000B4D0C4C00F018F8641BA4100026A642B7
:1004540005D170BD55F8043B98470136EEE755F8D1
:10046400043B98470136F2E794040008940400081A
:100474009404000898040008F8B500BFF8BC08BC50
:100484009E467047F8B500BFF8BC08BC9E4670474E
:04049400B9010008A2
:0404980095010008C2
:04000005080003E10B
:00000001FF
