:020000040800F2
:1000000000800120DD0600082D0700082D070008EC
:100010002D0700082D0700082D070008000000002C
:100020000000000000000000000000002D07000894
:100030002D070008000000002D0700082D0700080C
:100040002D0700082D0700082D0700082D070008C0
:100050002D0700082D0700082D0700082D070008B0
:100060002D0700082D0700082D0700082D070008A0
:100070002D0700082D0700082D0700082D07000890
:100080002D0700082D0700082D07000800000000BC
:100090000000000000000000000000002D07000824
:1000A0002D0700082D0700082D0700082D07000860
:1000B0002D0700082D0700082D0700082D07000850
:1000C0002D0700082D0700082D0700082D07000840
:1000D0002D0700082D0700082D070008000000006C
:1000E0002D0700082D0700082D070008000000005C
:1000F0000000000000000000000000002D070008C4
:10010000000000002D0700082D0700082D0700083B
:1001100000000000000000000000000000000000DF
:100120002D0700082D0700082D0700082D070008DF
:100130002D07000800000000000000000000000083
:100140000000000000000000000000002D07000873
:100150002D0700082D0700082D0700082D070008AF
:100160002D0700082D070008000000000000000017
:10017000000000000000000000000000000000007F
:10018000000000002D070008000000000000000033
:040190002D0700082F
:1001940010B5054C237833B9044B13B10448AFF3BD
:1001A40000800123237010BD000000200000000027
:1001B4007807000808B5034B1BB103490348AFF3A4
:1001C400008008BD0000000004000020780700083B
:1001D40080B400AF3C4B5A683B493C4B13404B60E6
:1001E400394B5B68384A43F4AA735360364B1B6837
:1001F400354A43F48033136000BF334B1B6803F468
:100204000033002BF9D0304B5B682F4A43F4800352
:1002140053602D4B1B682C4A43F08073136000BF5E
:10022400294B1B6803F00073002BF9D0284B1B6883
:10023400274A23F007031360254B1B68244A23F045
:1002440005031360224B1B68214A43F00203136029
:100254001F4B1B681E4A43F4706313601A4B9B6860
:10026400194A23F003039360174B9B68164A43F023
:1002740002039360144B9B68134A23F001039360B9
:1002840000BF114B9B6803F00803002BF9D00E4B01
:100294009B680D4A23F0F00393600B4B9B680A4A5A
:1002A40023F4E0539360084B9B68074A43F480535C
:1002B4009360054B9B68044A23F46043936000BF3A
:1002C400BD465DF8047B7047003802400080FCFFA7
:1002D400003C024090B482B000AF04460846114688
:1002E4001A462346FB710346BB710B467B711346CA
:1002F4003B71FB79032B73D0032B00F3A780012BF5
:1003040002D0022B36D0A1E0534B1B68524A43F073
:1003140001031360514B1B687979BA79520001FAD1
:1003240002F211464D4A0B4313607B79012B15D120
:100334004A4B5B68BA79012101FA02F2D2431146B1
:10034400464A0B405360454B9B683979BA79520051
:1003540001FA02F21146414A0B4393603F4BDB68BA
:10036400397CBA79520001FA02F211463B4A0B4336
:10037400D3606BE0384B1B68374A43F002031360C9
:10038400374B1B687979BA79520001FA02F21146A7
:10039400334A0B4313607B79012B15D1304B5B68D7
:1003A400BA79012101FA02F2D24311462C4A0B40D8
:1003B40053602B4B9B683979BA79520001FA02F2E7
:1003C4001146274A0B439360254BDB68397CBA7985
:1003D400520001FA02F21146214A0B43D36035E080
:1003E4001D4B1B681C4A43F0040313601D4B1B6820
:1003F4007979BA79520001FA02F21146194A0B438B
:1004040013607B79012B15D1164B5B68BA790121F6
:1004140001FA02F2D2431146124A0B405360114BC7
:100424009B683979BA79520001FA02F211460D4AF1
:100434000B4393600B4BDB68397CBA79520001FAA9
:1004440002F21146074A0B43D36000BF00BF0837CE
:10045400BD4690BC704700BF3038024000000240E7
:10046400000402400008024080B485B000AF034697
:100474000A46FB711346BB71FB79032B18D0032B7F
:100484001FDC012B02D0022B09D01AE0104B1B6990
:10049400BA79012101FA02F21340FB6011E00D4B1D
:1004A4001B69BA79012101FA02F21340FB6008E0EA
:1004B400084B1B69BA79012101FA02F21340FB606F
:1004C40000BFFB6818461437BD465DF8047B7047CF
:1004D400000002400008024080B483B000AF03462D
:1004E400FB710B46BB7113467B71FB79032B42D026
:1004F400032B5EDC012B02D0022B1ED059E07B794A
:10050400002B02D0012B0BD053E02D4B5B69BA7941
:10051400012101FA02F21146294A0B4353610BE00F
:10052400274B5B69BA79012101FA02F2D2431146E1
:10053400234A0B40536100BF3BE07B79002B02D080
:10054400012B0BD035E01F4B5B69BA79012101FA0D
:1005540002F211461B4A0B4353610BE0194B5B69D2
:10056400BA79012101FA02F2D2431146154A0B402D
:10057400536100BF1DE07B79002B02D0012B0BD00F
:1005840016E0114B5B69BA79012101FA02F21146B6
:100594000D4A0B4353610BE00B4B5B69BA790121A4
:1005A40001FA02F2D2431146074A0B40536100BFDD
:1005B40000BF00BF0C37BD465DF8047B704700BF29
:1005C40000000240000402400008024080B483B0EE
:1005D40000AF03460A46FB711346BB71FB79032B3C
:1005E4001CD0032B25DC012B02D0022B0BD020E0E6
:1005F400134B5B69BA79012101FA02F21146104AE0
:100604004B40536115E00F4B5B69BA79012101FA44
:1006140002F211460B4A4B4053610AE00A4B5B69F4
:10062400BA79012101FA02F21146074A4B4053619B
:1006340000BF00BF0C37BD465DF8047B704700BFA8
:1006440000000240000402400008024080B584B06B
:1006540002AFFFF7BDFD0023009300230122052113
:100664000120FFF737FE00230093002300220D2111
:100674000320FFF72FFE0D210320FFF7F5FE0346AD
:10068400002B0ED105210120FFF7A0FF00237B6082
:1006940002E07B6801337B607B68054A9342F8D9AA
:1006A400E9E7012205210120FFF716FFE3E700BF78
:1006B400A086010080B400AF064BD3F88830054A09
:1006C40043F47003C2F8883000BFBD465DF8047B74
:1006D400704700BF00ED00E0DFF834D00D480E494C
:1006E4000E4A002302E0D458C4500433C4188C4288
:1006F400F9D30B4A0B4C002301E013600432A242ED
:10070400FBD3FFF7D7FF00F011F8FFF79FFF704707
:10071400008001200000002000000020980700084D
:10072400000000201C000020FEE7000070B50D4D05
:100734000D4C641BA4100026A64209D10B4D0C4C91
:1007440000F018F8641BA4100026A64205D170BD61
:1007540055F8043B98470136EEE755F8043B9847B3
:100764000136F2E790070008900700089007000898
:1007740094070008F8B500BFF8BC08BC9E46704753
:0C078400F8B500BFF8BC08BC9E467047EA
:04079000B9010008A3
:0407940095010008C3
:04000005080006DD0C
:00000001FF
