:020000040800F2
:100000000080012089170008D9170008D9170008B7
:10001000D9170008D9170008D917000800000000F8
:10002000000000000000000000000000D9170008D8
:10003000D917000800000000D9170008B9120008FD
:10004000D9170008D9170008D9170008D9170008D0
:10005000D9170008D9170008D9170008D9170008C0
:10006000D9170008D9170008D9170008D9170008B0
:10007000D9170008D9170008D9170008D9170008A0
:10008000D9170008D91700082D1700080000000034
:10009000000000000000000000000000D917000868
:1000A000D9170008D9170008D9170008D917000870
:1000B000E3130008D9170008D9170008D91700085A
:1000C000D9170008D9170008D9170008D917000850
:1000D000D9170008D9170008D91700080000000038
:1000E000950D0008D9170008D91700080000000076
:1000F000000000000000000000000000D917000808
:1001000000000000D9170008D9170008D917000807
:1001100000000000000000000000000000000000DF
:10012000D9170008D9170008D9170008D9170008EF
:10013000D9170008000000000000000000000000C7
:10014000000000000000000000000000D9170008B7
:10015000D9170008D9170008D9170008D9170008BF
:10016000D9170008D917000800000000000000009F
:10017000000000000000000000000000000000007F
:1001800000000000D9170008000000000000000077
:04019000D917000873
:1001A00010B5054C237833B9044B13B10448AFF3B1
:1001B00000800123237010BDD40100200000000046
:1001C0003061000808B5034B1BB103490348AFF386
:1001D000008008BD00000000D80100203061000848
:1001E000034613F8012B002AFBD1181A0138704777
:1001F00001F0FF01102A2BDB10F0070F08D010F8D8
:10020000013B013A8B422DD010F0070F42B3F6D1DB
:10021000F0B441EA012141EA014122F007047FF0F4
:1002200000070023F0E80256083C85EA010586EA4B
:10023000010685FA47F5A3FA87F586FA47F6A5FA87
:1002400087F68EB9EED1F0BC01F0FF0102F0070293
:1002500032B110F8013B013A83EA010313B1F8D13E
:100260000020704701387047002D06BF354603381F
:10027000073815F0010F07D1013015F4807F02BF58
:10028000013015F4C03F0130F0BC0138704700BFA9
:1002900081F0004102E000BF83F0004330B54FEA37
:1002A00041044FEA430594EA050F08BF90EA020FA4
:1002B0001FBF54EA000C55EA020C7FEA645C7FEA37
:1002C000655C00F0E2804FEA5454D4EB5555B8BF5A
:1002D0006D420CDD2C4480EA020281EA030382EACB
:1002E000000083EA010180EA020281EA0303362D5D
:1002F00088BF30BD11F0004F4FEA01314FF4801C30
:100300004CEA113102D0404261EB410113F0004F41
:100310004FEA03334CEA133302D0524263EB4303F8
:1003200094EA050F00F0A780A4F10104D5F1200E96
:100330000DDB02FA0EFC22FA05F2801841F10001F1
:1003400003FA0EF2801843FA05F359410EE0A5F1C5
:1003500020050EF1200E012A03FA0EFC28BF4CF0F6
:10036000020C43FA05F3C01851EBE37101F00045AC
:1003700007D54FF0000EDCF1000C7EEB00006EEBB9
:100380000101B1F5801F1BD3B1F5001F0CD3490843
:100390005FEA30004FEA3C0C04F101044FEA44529A
:1003A00012F5800F80F09A80BCF1004F08BF5FEA21
:1003B000500C50F1000041EB045141EA050130BD01
:1003C0005FEA4C0C404141EB0101013C28BFB1F513
:1003D000801FE9D291F0000F04BF01460020B1FA5E
:1003E00081F308BF2033A3F10B03B3F120020CDA31
:1003F0000C3208DD02F1140CC2F10C0201FA0CF00F
:1004000021FA02F10CE002F11402D8BFC2F1200C73
:1004100001FA02F120FA0CFCDCBF41EA0C01904029
:10042000E41AA2BF01EB0451294330BD6FEA040472
:100430001F3C1CDA0C340EDC04F11404C4F120025D
:1004400020FA04F001FA02F340EA030021FA04F36F
:1004500045EA030130BDC4F10C04C4F1200220FAC6
:1004600002F001FA04F340EA0300294630BD21FA04
:1004700004F0294630BD94F0000F83F4801306BFCA
:1004800081F480110134013D4EE77FEA645C18BFBE
:100490007FEA655C29D094EA050F08BF90EA020F55
:1004A00005D054EA000C04BF1946104630BD91EA4D
:1004B000030F1EBF0021002030BD5FEA545C05D150
:1004C0004000494128BF41F0004130BD14F580048F
:1004D0003CBF01F5801130BD01F0004545F0FE4103
:1004E00041F470014FF0000030BD7FEA645C1ABF38
:1004F000194610467FEA655C1CBF0B46024650EA6F
:10050000013406BF52EA033591EA030F41F400219A
:1005100030BD00BF90F0000F04BF0021704730B520
:100520004FF4806404F132044FF000054FF00001F5
:1005300050E700BF90F0000F04BF0021704730B5B6
:100540004FF4806404F1320410F0004548BF40428B
:100550004FF000013EE700BF42004FEAE2014FEAE0
:1005600031014FEA02701FBF12F07F4393F07F4FBB
:1005700081F06051704732F07F4208BF704793F0BE
:100580007F4F04BF41F40021704730B54FF46074D1
:1005900001F0004521F000411CE700BF50EA0102D4
:1005A00008BF704730B54FF000050AE050EA01027D
:1005B00008BF704730B511F0004502D5404261EBED
:1005C00041014FF4806404F132045FEA915C3FF42E
:1005D000D8AE4FF003025FEADC0C18BF03325FEACB
:1005E000DC0C18BF033202EBDC02C2F1200300FA7C
:1005F00003FC20FA02F001FA03FE40EA0E0021FAA1
:1006000002F11444BDE600BF70B54FF0FF0C4CF48E
:10061000E06C1CEA11541DBF1CEA135594EA0C0F40
:1006200095EA0C0F00F0DEF82C4481EA030621EA7B
:100630004C5123EA4C5350EA013518BF52EA0335B6
:1006400041F4801143F4801338D0A0FB02CE4FF068
:100650000005E1FB02E506F00042E0FB03E54FF098
:100660000006E1FB03569CF0000F18BF4EF0010E90
:10067000A4F1FF04B6F5007F64F5407404D25FEA8C
:100680004E0E6D4146EB060642EAC62141EA55513F
:100690004FEAC52040EA5E504FEACE2EB4F1FD0C81
:1006A00088BFBCF5E06F1ED8BEF1004F08BF5FEAFF
:1006B000500E50F1000041EB045170BD06F00046B1
:1006C00046EA010140EA020081EA0301B4EB5C045E
:1006D000C2BFD4EB0C0541EA045170BD41F4801156
:1006E0004FF0000E013C00F3AB8014F1360FDEBF7B
:1006F000002001F0004170BDC4F10004203C35DA57
:100700000C341BDC04F11404C4F1200500FA05F3D9
:1007100020FA04F001FA05F240EA020001F000427A
:1007200021F0004110EBD37021FA04F642EB0601F0
:100730005EEA430E08BF20EAD37070BDC4F10C041A
:10074000C4F1200500FA04F320FA05F001FA04F2DE
:1007500040EA020001F0004110EBD37041F10001CA
:100760005EEA430E08BF20EAD37070BDC4F12005D5
:1007700000FA05F24EEA020E20FA04F301FA05F23D
:1007800043EA020321FA04F001F0004121FA04F2E5
:1007900020EA020000EBD3705EEA430E08BF20EAB5
:1007A000D37070BD94F0000F0FD101F000464000EF
:1007B00041EB010111F4801F08BF013CF7D041EA71
:1007C000060195F0000F18BF704703F00046520075
:1007D00043EB030313F4801F08BF013DF7D043EA46
:1007E0000603704794EA0C0F0CEA135518BF95EAFC
:1007F0000C0F0CD050EA410618BF52EA4306D1D183
:1008000081EA030101F000414FF0000070BD50EAA1
:10081000410606BF1046194652EA430619D094EA2B
:100820000C0F02D150EA013613D195EA0C0F05D115
:1008300052EA03361CBF104619460AD181EA030169
:1008400001F0004141F0FE4141F470014FF0000021
:1008500070BD41F0FE4141F4780170BD70B54FF0BC
:10086000FF0C4CF4E06C1CEA11541DBF1CEA13553C
:1008700094EA0C0F95EA0C0F00F0A7F8A4EB05041E
:1008800081EA030E52EA03354FEA013100F0888015
:100890004FEA03334FF0805545EA131343EA1263DE
:1008A0004FEA022245EA111545EA10654FEA002693
:1008B0000EF000419D4208BF964244F1FD0404F54C
:1008C000407402D25B084FEA3202B61A65EB0305A8
:1008D0005B084FEA32024FF480104FF4002CB6EB65
:1008E000020E75EB030E22BFB61A754640EA0C00E5
:1008F0005B084FEA3202B6EB020E75EB030E22BF25
:10090000B61A754640EA5C005B084FEA3202B6EB65
:10091000020E75EB030E22BFB61A754640EA9C0024
:100920005B084FEA3202B6EB020E75EB030E22BFF4
:10093000B61A754640EADC0055EA060E18D04FEAB2
:10094000051545EA16754FEA06164FEAC30343EA52
:1009500052734FEAC2025FEA1C1CC0D111F4801F1F
:100960000BD141EA00014FF000004FF0004CB6E718
:1009700011F4801F04BF01430020B4F1FD0C88BFB7
:10098000BCF5E06F3FF6AFAEB5EB030C04BFB6EBC2
:10099000020C5FEA500C50F1000041EB045170BDB5
:1009A0000EF0004E4EEA113114EB5C04C2BFD4EBE2
:1009B0000C0541EA045170BD41F480114FF0000E66
:1009C000013C90E645EA060E8DE60CEA135594EAE2
:1009D0000C0F08BF95EA0C0F3FF43BAF94EA0C0FE5
:1009E0000AD150EA01347FF434AF95EA0C0F7FF45A
:1009F00025AF104619462CE795EA0C0F06D152EAAE
:100A000003353FF4FDAE1046194622E750EA410691
:100A100018BF52EA43067FF4C5AE50EA41047FF4A2
:100A20000DAF52EA43057FF4EBAE12E74FF0FF3C07
:100A300006E000BF4FF0010C02E000BF4FF0010CD8
:100A40004DF804CD4FEA410C7FEA6C5C4FEA430C51
:100A500018BF7FEA6C5C1BD001B050EA410C0CBFA0
:100A600052EA430C91EA030F02BF90EA020F002002
:100A7000704710F1000F91EA030F58BF994208BF69
:100A800090422CBFD8176FEAE37040F00100704726
:100A90004FEA410C7FEA6C5C02D150EA013C07D17D
:100AA0004FEA430C7FEA6C5CD6D152EA033CD3D0C8
:100AB0005DF8040B704700BF8446104662468C46C2
:100AC0001946634600E000BF01B5FFF7B7FF0028F5
:100AD00048BF10F1000F01BD4DF808EDFFF7F4FF1E
:100AE0000CBF012000205DF808FB00BF4DF808EDA9
:100AF000FFF7EAFF34BF012000205DF808FB00BFCC
:100B00004DF808EDFFF7E0FF94BF012000205DF8ED
:100B100008FB00BF4DF808EDFFF7CEFF94BF0120A2
:100B200000205DF808FB00BF4DF808EDFFF7C4FF9B
:100B300034BF012000205DF808FB00BF4FEA410CE4
:100B40007FEA6C5C02D150EA013C0AD14FEA430CC7
:100B50007FEA6C5C02D152EA033C02D14FF0000004
:100B600070474FF0010070474FEA410212F5001242
:100B700015D211D56FF47873B3EB625212D94FEAE4
:100B8000C12343F0004343EA505311F0004F23FACE
:100B900002F018BF404270474FF00000704750EA23
:100BA000013005D111F0004008BF6FF000407047E0
:100BB0004FF00000704700BF4A0011D212F500123A
:100BC00011D20DD56FF47873B3EB62520ED44FEAA5
:100BD000C12343F0004343EA505323FA02F0704725
:100BE0004FF00000704750EA013002D14FF0FF3063
:100BF00070474FF0000070474FEA4102B2F1E04306
:100C000024BFB3F5001CDCF1FE5C0DD901F0004CF3
:100C10004FEAC0024CEA5070B2F1004F40EB830043
:100C200008BF20F00100704711F0804F21D113F16F
:100C30003872BCBF01F00040704741F480114FEAA8
:100C40005252C2F11802C2F1200C10FA0CF320FA31
:100C500002F018BF40F001004FEAC1234FEAD3234E
:100C600003FA0CFC40EA0C0023FA02F34FEA4303B8
:100C7000CCE77FEA625307D150EA01331EBF4FF041
:100C8000FE4040F44000704701F0004040F0FE405C
:100C900040F40000704700BF38B50022002304462E
:100CA0000D46FFF723FF28B920462946BDE8384006
:100CB00000F00AB8204605F1004100F005F8404276
:100CC00061EB410138BD00BFD0B50C4B0022064698
:100CD0000F46FFF799FCFFF76FFF0446FFF71AFC7A
:100CE000074B0022FFF790FC02460B463046394680
:100CF000FFF7D2FAFFF760FF2146D0BD0000F03DBC
:100D00000000F04180B400AF114B1B68104A23F083
:100D1000070313600E4B0E4A1B6813600C4B1B68D5
:100D20000B4A43F4706313600A4B1B68094A43F093
:100D30000103136000BF074B1B6803F00103002B86
:100D4000F9D000BF00BFBD465DF8047B704700BF0F
:100D5000003C02400038024080B483B000AF03463C
:100D6000FB7197F90730002B0CDBFB7903F01F02B6
:100D7000074997F907305B09012000FA02F2603356
:100D800041F8232000BF0C37BD465DF8047B704757
:100D900000E100E080B500AF2820FFF7DDFF044B45
:100DA0005B69034A43F40053536100BF80BD00BF39
:100DB000003C014090B482B000AF044608461146A2
:100DC0001A462346FB710346BB710B467B711346E3
:100DD0003B71FB79032B00F08E80032B00F3CE8058
:100DE000012B02D0022B43D0C8E0674B1B68664A38
:100DF00043F001031360654B1B687979BA7952009F
:100E000001FA02F21146614A0B4313607B79012B10
:100E100022D15E4B1B687979BA795200013201FA0E
:100E200002F2D2431146594A0B401360574B5B689C
:100E3000BA79012101FA02F2D2431146534A0B401A
:100E40005360524B9B683979BA79520001FA02F229
:100E500011464E4A0B4393604C4BDB68397CBA79A0
:100E6000520001FA02F21146484A0B43D36085E072
:100E7000454B1B68444A43F002031360444B1B6814
:100E80007979BA79520001FA02F21146404A0B43CD
:100E900013607B79012B22D13D4B1B687979BA799C
:100EA0005200013201FA02F2D2431146384A0B4095
:100EB0001360374B5B68BA79012101FA02F2D24321
:100EC0001146334A0B405360314B9B683979BA79EC
:100ED000520001FA02F211462D4A0B4393602C4B4B
:100EE000DB68397CBA79520001FA02F21146284ACD
:100EF0000B43D36042E0244B1B68234A43F00403B6
:100F00001360244B1B687979BA79520001FA02F216
:100F10001146204A0B4313607B79012B22D11D4BD4
:100F20001B687979BA795200013201FA02F2D24390
:100F30001146184A0B401360164B5B68BA790121C1
:100F400001FA02F2D2431146124A0B405360114B90
:100F50009B683979BA79520001FA02F211460D4ABA
:100F60000B4393600B4BDB68397CBA79520001FA72
:100F700002F21146074A0B43D36000BF00BF083797
:100F8000BD4690BC704700BF3038024000000240B0
:100F9000000402400008024080B483B000AF034662
:100FA000FB71FB7903F00103002B06D0244B5B6936
:100FB000234A43F01003536105E0214B5B69204A4B
:100FC00023F010035361FB7903F00203002B06D0DA
:100FD0001C4B5B691B4A43F00103536105E0194B4D
:100FE0005B69184A23F001035361FB7903F00403A2
:100FF000002B06D0144B5B69134A43F00103536185
:1010000005E0114B5B69104A23F001035361FB7942
:1010100003F00803002B06D00B4B5B690A4A43F030
:101020000203536105E0084B5B69074A23F00203A2
:10103000536100BF0C37BD465DF8047B704700BFAD
:1010400000000240000402400008024080B582B067
:1010500000AF0346FB710E4B5B690D4A23F48073AE
:1010600053610B4B5B690A4A43F480735361FB790C
:101070001846FFF791FF022000F088F9044B5B69E6
:10108000034A23F48073536100BF0837BD4680BD17
:101090000000024080B582B002AF0023009301231C
:1010A000012208210120FFF785FE00230093012380
:1010B000012201210120FFF77DFE0023009301237F
:1010C000012204210120FFF775FE00230093012374
:1010D000012200210220FFF76DFE0023009301236F
:1010E000012201210320FFF765FE00230093012365
:1010F000012200210320FFF75DFE0320FFF7A6FF7A
:101100000320FFF7A3FF0320FFF7A0FF0220FFF754
:101110009DFF0220FFF79AFF0820FFF797FF0020AE
:10112000FFF794FF0820FFF791FF0020FFF78EFFE5
:101130000120FFF78BFF0020FFF788FF0C20FFF74F
:1011400085FF00BFBD4680BD80B584B000AF0346BB
:101150000A46FB711346BB712C4B5B692B4A23F08B
:1011600002035361BB79013B032B4BD801A252F818
:1011700023F000BF85110008A5110008C511000863
:10118000E5110008FB79803BFB73FB7980331B1171
:10119000BB73BB7B1846FFF759FFFB7B1846FFF775
:1011A00055FF2FE0FB79403BFB73FB79C0331B11EC
:1011B000BB73BB7B1846FFF749FFFB7B1846FFF765
:1011C00045FF1FE0FB796C3BFB73FB7994331B11EC
:1011D000BB73BB7B1846FFF739FFFB7B1846FFF755
:1011E00035FF0FE0FB792C3BFB73FB79D4331B11EC
:1011F000BB73BB7B1846FFF729FFFB7B1846FFF745
:1012000025FF00BF00BF1037BD4680BD0000024073
:1012100080B584B000AF0346FB71FB791B09FB73FB
:10122000FB79BB73084B5B69074A43F002035361C8
:10123000FB7B1846FFF70AFFBB7B1846FFF706FF4C
:1012400000BF1037BD4680BD0000024080B584B0AD
:1012500000AF78607B68FB6006E0FB685A1CFA60B0
:101260001B781846FFF7D4FFFB681B78002BF4D1DE
:1012700000BF00BF1037BD4680BD000080B483B002
:1012800000AF0346FB7197F90730002B0CDBFB79AD
:1012900003F01F02074997F907305B09012000FAA4
:1012A00002F2603341F8232000BF0C37BD465DF8E1
:1012B000047B704700E100E080B500AF4FF0FF30E5
:1012C000FFF7DCFF00F002F800BF80BD80B400AF84
:1012D000044B1B680133034A136000BFBD465DF831
:1012E000047B7047F001002080B483B000AF034658
:1012F000FB7197F90730002B0CDBFB7903F01F0221
:10130000074997F907305B09012000FA02F26033C0
:1013100041F8232000BF0C37BD465DF8047B7047C1
:1013200000E100E080B483B000AF7860164B1B6C26
:10133000154A43F0010313644FF080431B684FF0DC
:10134000804223F0100313604FF080431B684FF07E
:10135000804243F0080313604FF080435B684FF016
:10136000804223F0700353604FF0804300229A6262
:101370004FF080427B68013BD36200BF0C37BD4613
:101380005DF8047B704700BF0038024080B483B032
:1013900000AF78607A6813469B0013445B004FF0FF
:1013A0008042013B93624FF080431B684FF08042C4
:1013B00043F00103136000BF4FF080431B6903F04B
:1013C0000103002BF8D04FF080431B694FF080429F
:1013D00023F00103136100BF0C37BD465DF8047BA9
:1013E000704780B500AF1C20FFF77EFF4FF08043B1
:1013F0001B694FF0804223F00103136100BF80BDE1
:1014000080B483B000AF0346FB7197F90730002B1F
:101410000BDBFB7903F01F02074997F907305B09E3
:10142000012000FA02F241F8232000BF0C37BD462C
:101430005DF8047B704700BF00E100E080B483B03A
:1014400000AF03463960FB7197F90730002B0ADBC8
:101450003B68DAB20C4997F907301201D2B20B445B
:1014600083F800230AE03B68DAB20849FB7903F00D
:101470000F03043B1201D2B20B441A7600BF0C37A3
:10148000BD465DF8047B704700E100E000ED00E040
:1014900080B500AF244B5B6C234A43F480735364E4
:1014A000214B1B6B204A43F0010313631F4B1B6846
:1014B0001E4A43F0030313601D4B9B681C4A23F430
:1014C000006393601A4B9B68194A23F002039360F0
:1014D000174B5B68164A23F040735360154B5B68EB
:1014E000144A23F440335360114B1B69104A23F014
:1014F000070313610E4BDB6A0D4A23F47003D362BA
:101500000B4B00225A630A4B9B68094A43F0804305
:101510009360074B9B68064A43F0010393600A20DF
:10152000FFF734FF00BF80BD0038024000000240DA
:10153000002001400023014080B400AF094B00228D
:101540001A60084B9B68074A43F001039360054B00
:101550009B68044A43F08043936000BFBD465DF83A
:10156000047B70470020014080B400AF054BDB6C6A
:101570009BB2C3F30B039BB21846BD465DF8047BD8
:10158000704700BF0020014080B500AF074B5B688B
:10159000064A43F02003536005211220FFF74EFF57
:1015A0001220FFF72DFF00BF80BD00BF00200140CB
:1015B00080B483B000AF0346FB7197F90730002B6E
:1015C0000CDBFB7903F01F02074997F907305B0931
:1015D000012000FA02F2603341F8232000BF0C37EB
:1015E000BD465DF8047B704700E100E080B483B045
:1015F00000AF03463960FB7197F90730002B0ADB17
:101600003B68DAB20C4997F907301201D2B20B44A9
:1016100083F800230AE03B68DAB20849FB7903F05B
:101620000F03043B1201D2B20B441A7600BF0C37F1
:10163000BD465DF8047B704700E100E000ED00E08E
:1016400080B582B000AF78607B68013BB3F1807FEA
:1016500001D301230FE00A4A7B68013B53600F214D
:101660004FF0FF30FFF7C2FF054B00229A60044B9A
:1016700007221A60002318460837BD4680BD00BF08
:1016800010E000E00000000080B500AFFFF73AFB7B
:101690004FF4C860FFF746FE4FF47A50FFF7D0FFD3
:1016A000FFF7F8FCFFF7F4FEFFF76EFFFFF744FFCC
:1016B000194B1B78002BFBD0184B1B881846FEF7E4
:1016C00039FF13A3D3E90023FEF79EFF02460B4622
:1016D00010461946FFF790FA0346114A1360104B63
:1016E0001B681846FEF738FF02460B460D490E48A8
:1016F00000F020FF01210020FFF726FD0A48FFF738
:10170000A5FD054B00221A70FFF716FFD0E700BFBA
:10171000503368B699CE4C3FF4010020F60100200A
:10172000F8010020486100080802002080B500AFE1
:101730001220FFF73DFF084B1B68074A03F0020326
:101740001360FFF711FF03461A46044B1A80044B3F
:1017500001221A7000BF80BD00200140F601002068
:10176000F401002080B400AF064BD3F88830054A5E
:1017700043F47003C2F8883000BFBD465DF8047BB7
:10178000704700BF00ED00E0DFF834D00D480E498F
:101790000E4A002302E0D458C4500433C4188C42CB
:1017A000F9D30B4A0B4C002301E013600432A24230
:1017B000FBD3FFF7D7FF00F011F8FFF765FF704785
:1017C0000080012000000020D401002014660008E1
:1017D000D401002028020020FEE7000070B50D4D66
:1017E0000D4C641BA4100026A64209D10B4D0C4CD5
:1017F00004F09EFC641BA4100026A64205D170BD17
:1018000055F8043B98470136EEE755F8043B9847F6
:101810000136F2E70C6600080C6600080C6600084A
:101820001066000802440346934200D1704703F853
:10183000011BF9E72DE9FF4755EC104B002D0E4633
:1018400019462B46BBBF05F100431D4600232D233F
:101850000B700D9BDDF830A0914623F02008BCBF33
:1018600022461446B8F1460F05D0B8F1450F00D115
:101870000136022100E0032103AB019302AB009388
:1018800045EC104B5346324601F0B6FDB8F1470F18
:10189000074602D119F0010F22D0B8F1460F07EB2D
:1018A000060910D13B78302B0AD1002200232046B4
:1018B0002946FFF711F918B9C6F10106CAF8006008
:1018C000DAF8003099440022002320462946FFF729
:1018D00003F908B1CDF80C903022039B4B4507D398
:1018E000039B0E9ADB1B3846136004B0BDE8F087FB
:1018F000591C03911A70F0E7F7B503460029B8BFE9
:10190000494203F8022BB4BF2D222B220929427031
:101910002ADD0DF10704A4460A27A6460A4691FBD4
:10192000F7F607FB16153035632A04F1FF340EF87D
:10193000015C3146F1DC3031AEF1020504F8011CE6
:10194000441C294661450AD30DF10902A2EB0E029F
:10195000654588BF00221344181A03B0F0BD11F882
:10196000012B04F8012FEDE7302330318370C17073
:10197000031DF1E72DE9F04F2DED028B8DB00C46E4
:10198000DDF8608016461F46054602F097FED0F847
:1019900000A05046FEF724FC00230A932368059319
:1019A000D8F8003094F818B0073323F0070303F198
:1019B0000802C8F80020D3E90023C4E91223D4E9BF
:1019C000128929F000430793CDF8188008EE100A19
:1019D0009F4BDDE906014FF0FF32FFF7AFF888BB00
:1019E000DDE906019A4B4FF0FF32FFF789F848BB5B
:1019F0000022002340464946FFF778F810B12D2316
:101A000084F84330934B9448BBF1470F94BF9846FA
:101A1000804603232361059B23F0040222604FF0DC
:101A20000009009733460BAA2146284600F0D8F952
:101A3000013040F090804FF0FF300DB0BDEC028BD4
:101A4000BDE8F08F42464B4640464946FFF776F8E0
:101A500040B14B46002BBCBF2D2384F843307F4858
:101A60007F4BD1E763680BF0DF0206925A1C3FD12F
:101A700006236360059B616843F48062002303933F
:101A80000AABCDE901B309AB49EC108B009322609E
:101A90000DF123032846FFF7CDFE069B0999472B3E
:101AA000804608D1C81C02DB6368994241DDABF176
:101AB000020B5FFA8BFBBBF1650F20D801395A4648
:101AC00004F150000991FFF717FF0A9A1318012A31
:101AD0008146236102DC2268D20701D501332361EC
:101AE0009DF82330002B9CD02D2384F8433098E7B9
:101AF000069A472ABED1002BBCD10123B9E7BBF11E
:101B0000660F18D1002963680BDD216113B92268C3
:101B1000D00702D501330B442361A1654FF00009C2
:101B2000DEE713B92268D20701D50233F4E70123B7
:101B3000F2E74FF0670B0A9B994205DB23682161AE
:101B4000D807EAD54B1CE7E70029D4BFC1F1020250
:101B500001221344E0E723685A0507D4236942466B
:101B600031462846B84701302CD164E7BBF1650FF8
:101B700040F2E080D4E9120100220023FEF7ACFF1E
:101B8000002834D0374A012331462846B84701306F
:101B90003FF451AFDDE909239A4202DB2368D807FD
:101BA00010D518EE103A524631462846B847013053
:101BB0003FF441AF4FF0000804F11A090A9B013BC2
:101BC000434509DC23689B0700F10581E0680B9B16
:101BD0009842B8BF184630E701234A4631462846A6
:101BE000B84701303FF427AF08F10108E6E7099B49
:101BF000002B39DC1B4A012331462846B847013007
:101C00003FF419AFDDE90923134302D12368D90753
:101C1000D8D518EE103A524631462846B84701301A
:101C20003FF409AF4FF0000904F11A0A099B5B4227
:101C30004B4501DC0A9B92E7012352463146284678
:101C4000B84701303FF4F7AE09F10109EEE700BFF4
:101C5000FFFFEF7F5C6100086061000868610008B9
:101C6000646100086C6100080A9AA36D9A42A8BFDB
:101C70001A46002A914637DC4FF0000B29EAE97931
:101C800004F11A02A36D0593A3EB09035B4533DC52
:101C9000DDE909239A423BDB2368DA0738D40A9A44
:101CA000059B0999D31AA2EB01099945A8BF99464A
:101CB000B9F1000F35DC4FF0000829EAE97904F1A9
:101CC0001A0ADDE909239B1AA3EB090343457FF7B1
:101CD00079AF0123524631462846B84701303FF4D8
:101CE000AAAE08F10108ECE7134631464246284601
:101CF000B8470130C0D19EE60123314628460592FF
:101D0000B84701303FF497AE059A0BF1010BB9E7E4
:101D100018EE103A524631462846B8470130BED137
:101D200089E6059A4B46424431462846B847013079
:101D3000C1D180E60A9A012A01DCDB0738D50123EC
:101D4000424631462846B84701303FF474AE18EE9B
:101D5000103A524631462846B84701303FF46BAE40
:101D6000D4E9120100220023FEF7B6FED8B90A9B7F
:101D700008F10102013B31462846B84701300ED137
:101D800059E60123524631462846B84701303FF410
:101D900052AE08F101080A9B013B4345F1DC4B467A
:101DA00004F15002DCE64FF0000804F11A0AF2E7F1
:101DB00001234246DFE701234A4631462846B84719
:101DC00001303FF438AE08F10108E3680B995B1A63
:101DD0004345F0DCFAE64FF0000804F11909F4E796
:101DE0002DE9F047164699468A680B69DDF8208090
:101DF0009342B8BF1346336091F8432007460C4620
:101E00000AB1013333602368990642BF3368023355
:101E10003360256815F0060506D104F1190AE36858
:101E200032689B1AAB4226DC94F84320131E2268CA
:101E300018BF012392062BD404F1430249463846C9
:101E4000C04701301ED02368E568326803F00603FE
:101E5000042B08BFAD1AA36822690CBF25EAE575FB
:101E600000259342C4BF9B1AED1800261A34B542D0
:101E70001AD1002008E00123524649463846C0479F
:101E8000013003D14FF0FF30BDE8F0870135C6E7E0
:101E9000E1185A1C302081F84300224494F8451080
:101EA00082F843100233C7E70123224649463846E9
:101EB000C0470130E6D00136D9E700002DE9FF47E1
:101EC0000C469146277E0C99782F80469A4604F15D
:101ED000430207D8622F0AD8002F00F0D880582F6D
:101EE00000F0A38004F1420684F842703AE0A7F1C2
:101EF0006303152BF6D801A050F823F0551F0008F6
:101F0000691F0008E51E0008E51E0008E51E000820
:101F1000E51E0008691F0008E51E0008E51E000810
:101F2000E51E0008E51E000875200008991F00083E
:101F300057200008E51E0008E51E0008972000084D
:101F4000E51E0008991F0008E51E0008E51E0008B0
:101F50005F2000080B681A1D1B680A6004F1420626
:101F600084F842300123A3E0256808682E0600F1BA
:101F700004030AD505680B60002D03DA2D236D429A
:101F800084F843305E480A2319E015F0400F0568D5
:101F90000B6018BF2DB2EFE70B682568181D0860AD
:101FA000280601D51D6802E06906FBD51D88544846
:101FB0006F2F0CBF08230A23002184F843106668A2
:101FC000A660002EA2BF216821F0040121600DB996
:101FD000002E4DD01646B5FBF3F103FB1157C75D3C
:101FE00006F8017D2F46BB420D46F4D9082B0BD1D4
:101FF0002368DF0708D5236961689942DEBF302373
:1020000006F8013C06F1FF36921B2261CDF800A0D4
:102010004B4603AA21464046FFF7E2FE01304CD171
:102020004FF0FF3004B0BDE8F087354884F84570C4
:1020300023680E681F0656F8045B0E6014D5D90796
:1020400044BF43F0200323601DB9236823F020031D
:1020500023601023B0E7236843F020032360782334
:10206000284884F84530E3E75E0648BFADB2E6E7AE
:102070001646BBE70B68266860691D1D0D603506B6
:102080001B6801D5186002E07106FBD5188000239B
:1020900023611646BAE70B681A1D0A601E6862685B
:1020A00000213046FEF7A4F808B1801B6060636829
:1020B0002361002384F84330A8E723693246494668
:1020C0004046D0470130ABD023689B0713D4E0686B
:1020D000039B9842B8BF1846A4E7012332464946FD
:1020E0004046D04701309BD00135E36803995B1A25
:1020F000AB42F2DCEBE7002504F11906F5E700BF7F
:102100006E6100087F6100082DE9F04F87B0174627
:1021100003938B685A1EB2F5AE7F83BF6FF4AE7522
:102120005B190293002386BF40F25D138B6002931C
:102130000B688B46002543F4F0634BF81C3BCDE95C
:10214000045580460C465E46AA46A9460195A268FB
:1021500052B13B681B784E2B64D8402B3CD8A3F17E
:102160002B01C8B20E283AD9B9F1000F03D0236869
:1021700023F4807323600AF1FF3ABAF1010F00F2F1
:1021800013815E4500F205810125284607B0BDE8B0
:10219000F08FA3F161020D2AE6D801A151F822F0D7
:1021A000DF22000869210008692100086921000870
:1021B0003F2300081723000869210008692100084F
:1021C000ED22000869210008692100086921000842
:1021D00069210008A5220008A3F14102DBE70E29CE
:1021E000C2D801A050F821F0972200086921000808
:1021F000972200082B2300086921000845220008C7
:102200008122000881220008812200088122000822
:102210008122000881220008812200088122000812
:10222000812200086E2B09D8602BB2D8542B77D0AE
:10223000592B99D1072D97D1082529E0742B6FD000
:10224000792BF6E72168C8051AD5029B21F0800199
:10225000216009F101091BB1013B01320293A26027
:10226000A368013BA3602369013323617B68013BC1
:10227000002B7B6040F384803B6801333B6066E762
:102280001AEB050F7FF470AF226822F4C07222604F
:1022900006F8013BE4E7226810067FF565AF22F0FF
:1022A0008002F4E7BAF1000F0ED1B9F1000F0ED1A0
:1022B000226802F4E061B1F5E06F08D122F4F06227
:1022C00022604FF0010AE3E7BAF1020F55D0012D69
:1022D00002D0042D7FF448AF0135EDB2D8E7BAF152
:1022E000010F7FF441AF4FF0020AD1E77DB9B9F198
:1022F000000F7FF43CAF226802F4E061B1F5E06FBB
:102300007FF439AF22F4F06222600125C0E7032D8B
:10231000E2D0052DDEE7022D7FF426AF0325B7E7D7
:10232000062D7FF421AF0725B2E7226891057FF5DE
:102330001BAF22F420722260CDF80490A8E7226837
:1023400002F4A061B1F5806F06D050057FF50CAFA7
:10235000B9F1000F3FF40FAF910558BF019922F476
:10236000F06258BFA9EB010142F4C07258BFCDE939
:10237000041622604FF000098AE74FF0030A87E74E
:10238000D4F8803139464046984700283FF4DFAE04
:10239000EAE6D4F87C3116F8011D3A4640469847E3
:1023A0002369013B2361ECE66B1E062B25D8022D29
:1023B00036D85E457FF6E8AED4F87C3116F8011DBC
:1023C0003A46404698472369013B2361F1E702986A
:1023D000D4F87C3110F8011D02903A4640469847E7
:1023E0002369013B23610AF1FF3A5FFA8AFABAF1E5
:1023F000020FECD1033DEDB2761B2368DA052FD531
:102400005B0510D55E457FF6BFAED4F87C3116F87B
:10241000011D3A46404698472369013B2361F1E795
:10242000AA460296DFE716F8011C2369652903F125
:10243000FF3306F1FF3523610CD045290AD0D4F8CB
:102440007C313A4640469847236916F8021C013B06
:10245000B51E2361D4F87C313A46404698472E4653
:10246000256815F0100558D13570236803F4C06352
:10247000B3F5806F1CD1019B4B45A3EB090224D11E
:1024800000225946404600F09DFE039B21681B68D0
:1024900011F0020F57EC106B03F1040220D00399E6
:1024A0000A601B68C3E90067E3680133E3606CE618
:1024B000049B002BE4D005990A232A4601314046AB
:1024C00000F00AFF049B059EC21A04F26F139E429D
:1024D00028BF04F5B7761249304600F02BF8CFE755
:1024E00011F0040F03990A60DBD1D3F8008010EEDD
:1024F000102A10EE100A3B463946FEF71FFB28B1A2
:10250000084800F011F888ED000ACDE7304639465A
:10251000FEF772FBC8F80000C6E7002535E600BFED
:1025200090610008A86500089FED010A704700BF90
:102530000000C07F0EB400B59CB01DAB02900690A9
:102540006FF00041094807910491094953F8042BA1
:1025500005910068019302A902F0ACFE029B0022E3
:102560001A701CB05DF804EB03B070470000002047
:102570000802FFFF70B504460D4645EC104B1646A9
:1025800002F034FC51EC100B7EB1C5F30A53C3F1D9
:102590006B03002B09DD1B0503F17F55002405F5B6
:1025A000401522462B46FEF72FF870BD00000000B4
:1025B0002DE9F04FA3B01F4600231E93A44B1992A0
:1025C0001B680793044618468846FDF709FE4FF03E
:1025D000000A05464FF0000BCDF874801D9B1A7859
:1025E0002B2A4CD039D80D2A32D8082A32D8002AC2
:1025F0003CD000230E931D9E3378302B40F0B480E6
:10260000737803F0DF03582B6CD10E9B01931EAB44
:10261000029700938F4A1FAB1DA9204601F046FD8B
:1026200010F00707054605D0062F2AD101360023F2
:102630001D960E93199B002B40F096850E9BDBB1E7
:1026400052460BF1004343EC102B23B0BDE8F08F52
:10265000202ACED101331D93C0E72D2AC9D10122F2
:102660000E925A1C1D925B78002BC4D1199BCDF899
:102670007480002B40F0768552465B46E3E70022EB
:10268000EEE71E9A3AB1352120A802F0BAFC1E9955
:10269000204602F07FF8013F052F07D8DFE807F05A
:1026A0000E0B181D0E034FF0000BDA462807C1D59C
:1026B0004BF0004BBEE7DDE920ABF7E7DDE920A3F7
:1026C0001F9A23F4801302F2334243EA025BEDE7E0
:1026D000DFF884B14FF0000AE8E76FF0004B4FF0ED
:1026E000FF3AE3E71D9B5A1C1D925B78302BF9D013
:1026F000002B9FD001234FF0000904931D9B0A93E8
:10270000CDF824904F460A221D980678A6F1300392
:10271000D9B209292AD907992A4602F0E5FE98B3C9
:10272000002033463D4607900246652B01D0452BDD
:1027300018D11DB9049B034398D00025DDF874809F
:1027400008F101031D9398F801302B2B75D02D2B28
:102750007BD04FF0000CA3F13001092940F28280B8
:10276000CDF8748000269DE00023C4E7082FD8BF71
:10277000099900F10100DABF02FB0133099302FB62
:10278000093901371D90BFE71D9B5A191D925B5DEA
:10279000002F37D007903D46A3F13002092A12D905
:1027A0000122C2E71D9B5A1C1D925B780130302B21
:1027B000F8D0A3F13102082A00F2DB841D9A0790B9
:1027C00000200A920546303B00F1010214D007991F
:1027D000114407912A4600EB050E0A21724513D1D8
:1027E0002A18082A05F1010505441CDC09990A226A
:1027F00002FB0133099300221D9B591C1D915B783C
:102800001046C9E73846D2E7082A04DC099E4E4341
:1028100009960132E2E702F1010CBCF1100FD8BFBA
:1028200001FB09F9F5E7102DDCBF0A2202FB09398B
:10283000E1E70023079301227CE74FF0000C08F149
:1028400002031D9398F8023085E74FF0010CF6E77C
:10285000E8630008986100080000F07F1D9B591C88
:102860001D915B78302BF9D0A3F1310108293FF697
:1028700079AFA3F1300E1D9B08931D9B591C1D9130
:102880005B78A3F13006092E37D9089E891B0829E9
:1028900044F61F6602DC7645A8BF7646BCF1000F01
:1028A00000D07642002D4FD1049901437FF4C2AE8F
:1028B000002A7FF4DBAE692B27D024DC492B24D0FF
:1028C0004E2B7FF4D3AE9E491DA801F047FE002891
:1028D0003FF4CCAE1D9B1B78282B2DD1994920AA03
:1028E0001DA801F04FFE052826D1219BDDF880A010
:1028F00043F0FF4B4BF4E00B9CE60A2101FB0E3E3C
:10290000AEF1300EB9E76E2BDBE78F491DA801F061
:1029100025FE00283FF4AAAE1D9B8C49013B1DA853
:102920001D9301F01BFE10B91D9B01331D93DFF8B1
:102930002CB24FF0000A7DE6854802F0BDFD8DED1A
:10294000040BDDE904AB75E6079B0998F31A002F29
:1029500008BF2F46102D0893A846A8BF4FF01008B7
:10296000FDF7D8FD092D82468B4613DD794B03EB2D
:10297000C80353E91223FDF747FE824648468B46BB
:10298000FDF7C8FD02460B4650465946FDF786FC4A
:1029900082468B460F2D38DC089B002B3FF44AAE55
:1029A00024DD162B0BDC6B4D05EBC305D5E90001CF
:1029B00052465B46FDF728FE82468B463AE6089A69
:1029C000C5F12503934220DB624CC5F10F0504EBF2
:1029D000C50152465B46D1E90001FDF715FE089B93
:1029E0005D1B04EBC504D4E90023E3E7089B163321
:1029F0000BDB079B574A9E1B02EBC606D6E900235A
:102A000050465946FDF72AFFD6E7089BA5EB080874
:102A10009844B8F1000F71DD18F00F030AD04D494A
:102A200001EBC30152465B46D1E90001FDF7ECFD25
:102A300082468B4638F00F084DD0B8F59A7F22DDDC
:102A400000252E46099507952223DFF810B1236053
:102A50004FF0000A099B002B3FF4ECAD1E99204675
:102A600001F098FE0799204601F094FE3146204679
:102A700001F090FE0999204601F08CFE294620467F
:102A800001F088FED6E500234FEA28185046594643
:102A90009946B8F1010F21DC0BB182468B462E4BD3
:102AA000ABF1547B03EBC90952465B46D9E90001FF
:102AB000FDF7AAFD294B0A460B4029498B42824665
:102AC000BED8A1F580118B4286BFDFF898B04FF0D9
:102AD000FF3A02F1547B0023049381E018F0010FC8
:102AE00007D01D4B03EBC903D3E90023FDF78CFD91
:102AF000012309F101094FEA6808CAE7EBD0C8F1E0
:102B0000000818F00F020AD0124B03EBC203504624
:102B10005946D3E90023FDF7A1FE82468B465FEAC2
:102B20002818D8D0B8F11F0F1EDD00252E460995B4
:102B3000079522234FF0000A4FF0000B236089E72E
:102B400069610008AC61000861610008EC6200087E
:102B5000A865000888640008606400080000F07F31
:102B60000000A07CFFFFEF7F18F0100318BF6A235E
:102B7000DFF8B493049350465946002318F0010F30
:102B800004D0D9E90023FDF73FFD01235FEA68087F
:102B900009F10809F2D10BB182468B46049BBBB107
:102BA000CBF30A53C3F16B03002B594610DD1F2BE7
:102BB00040F32881342BDEBF203B4FF0FF3202FA76
:102BC00003F34FF0000ACCBF4FF05C7B03EA010B2C
:102BD0000022002350465946FDF77EFF0028A4D16D
:102BE000099B00930A992B463A46204601F03EFE87
:102BF000099000283FF424AF079B9E1B089B002BE5
:102C0000B4BF334600231093089B002523EAE373E7
:102C100018932E46099B2046596801F07BFD0790CA
:102C200000283FF411AF099B1A69023203F10C012D
:102C300092000C3001F060FD4BEC10AB20AA1FA9F4
:102C40002046CDE90AAB02F04DF91E9000283FF472
:102C5000FBAE0121204601F0A3FE064600283FF40A
:102C6000F3AE1F9B0499002BABBF109A189A189FC4
:102C7000DDF84090ACBF03EB0209D71A209AA3EB12
:102C800001089044A34B08F1FF389845C2F1360281
:102C900080F2CC80A3EB08031F2BA2EB03024FF0C2
:102CA000010100F3B68001FA03F3119300230C93A2
:102CB00009EB0208049BC14517441F444B46A8BFBB
:102CC0004346BB42A8BF3B46002BC2BFA8EB03084C
:102CD000FF1AA9EB0309109B002B17DD31461A469A
:102CE000204601F019FF064600283FF4ADAE01462C
:102CF0001E9A204601F06AFE0F9000283FF4A4AE11
:102D00001E99204601F046FD0F9B1E93B8F1000F5F
:102D100000F39180089B002B08DD189A0799204644
:102D200001F0FAFE079000283FF48EAE002F08DD78
:102D300007993A46204601F049FF079000283FF4E2
:102D400083AEB9F1000F08DD31464A46204601F056
:102D50003DFF064600283FF477AE079A1E992046AD
:102D600001F0BCFF054600283FF46EAEC3680F9328
:102D70000023C360314601F095FF002865DA0F9B00
:102D800053EA0A0340F08780CBF31303002B40F093
:102D900082802BF000431B0D1B05B3F1D66F7AD94F
:102DA0006B6913B92B69012B75DD29460122204679
:102DB00001F00CFF3146054601F074FF00286ADD82
:102DC0000499554A5B46002900F0858002EA0B0110
:102DD000B1F1D66F7FDCB1F15C7F7FF7AAAE4F4ACD
:102DE0000023CDE916325046DDE916235946FDF79A
:102DF0000BFC0B46034308BF222382468B4608BFC9
:102E000023602BE64FF0FF3202FA03F303EA0A0ACB
:102E1000DEE6C8F17F4808F57F0808F57B4808F131
:102E2000E20801FA08F30C93119141E700230C9397
:102E3000012311933CE71E994246204601F0C6FE4D
:102E40001E9000287FF466AFFEE55F466ED10F9AB4
:102E5000CBF3130342B3324A934228D1049B50462A
:102E6000EBB12D4A3A40B2F1D46F4FF0FF3119D88F
:102E7000120DC2F16B0301FA03F3984217D1294BEB
:102E80009F4202D101303FF4DFAD234B3B4003F5BD
:102E9000801B4FF0000A049B002BA0D1DEE54FF011
:102EA000FF33EAE70B46E8E753EA0A0388D00C9BB6
:102EB000DBB13B42EFD00F9B049A50465946C3B159
:102EC000FFF758FB02460B46DDE90A01FDF7E6F97C
:102ED00082468B46DFE71340A3F580136FEA135B4E
:102EE0006FEA0B5B4FF0FF3AD5E7119B13EA0A0F2D
:102EF000E0E7FFF73FFB02460B46DDE90A01FDF77D
:102F0000CBF90022002382468B46FDF7E5FD002821
:102F1000C1D00EE602FCFFFF0000F07F0000503938
:102F2000FFFF0F00FFFFEF7FC0610008314628461A
:102F300002F034F859EC108B10EE100A00224FF01A
:102F400080434946FDF7DCFD00287CD00F9B002B19
:102F50004CD0954B0022CDE90C23DFF84C924FF07A
:102F60000008924B3B401193119A914B9A4240F0CA
:102F7000B280DDE90A23DDE90C01A7F1547B4BECBB
:102F800010ABCDE91623CDE90C0101F02FFFDDE9EF
:102F90000C0153EC102BFDF737FB52465B46FDF757
:102FA0007DF90B468149834A1940914282465ED998
:102FB0000B9B02F15472934203D10A9B01333FF4FD
:102FC00043ADDFF8FCB14FF0FF3A1E99204601F007
:102FD000E1FB0799204601F0DDFB3146204601F078
:102FE000D9FB2946204601F0D5FB13E6BAF1000FC4
:102FF0001BD1CBF31303F3B96B4B00224046494678
:10300000FDF774FDD0B9404649466B4B0022FDF7F1
:10301000FBFA8046894609F10043CDF868801B938E
:10302000DDE91A23CDE90C239BE7BAF1010F02D1A8
:10303000002F3FF47EAD614B00228CE7DFF87891E2
:103040004FF00008E7E75C4B404649460022FDF799
:10305000DBFA0F9B8046894633B901F10043129099
:103060001393DDE91223DDE7CDE91289F9E703F1D6
:10307000547B049B002BA8D12BF00043119A1B0D0D
:103080001B059A42A1D140464946FDF705FEFDF7D2
:103090008DFA02460B4640464946FDF7FDF80F9A69
:1030A000CBF3130343EA0A0313438046894653D004
:1030B00035A3D3E90023FDF719FD00287FF4CEAC3A
:1030C00033A3D3E9002340464946FDF72DFD0028F0
:1030D0003FF47BAFC2E4049B33B3119BB3F1D46FD5
:1030E00022D82DA3D3E9002340464946FDF708FD29
:1030F000A0B149464046FDF75FFD012838BF0120D9
:10310000FDF708FA0F9B8046894613BB01F1004387
:1031100014901593DDE91423CDE90C230D9B119A2E
:1031200003F1D6639B1A0D93DDE90C019DED0A0BAB
:10313000CDE90C0101F05AFEDDE90C0153EC102B36
:10314000FDF762FADDE90A23FDF7A8F882468B460F
:103150008FE7CDE91489DDE711A3D3E90023FDF75B
:10316000C5FCB4E700230E93199A1D9B1360FFF76B
:1031700065BA652B3FF45DAB452B3FF45AAB01229A
:10318000FFF792BBAFF300809535A094FFFFDF3FC0
:1031900035E5AF350000E03F0000C0FFFFFFDF4135
:1031A0009535A094FFFFCF3F0000F03F0000F07F77
:1031B0000000E07FFFFF9F7C0000E03F0000F0BFC9
:1031C000FFFFEF7F014BFFF7F3B900BF680000205E
:1031D000012B2DE9F04701D0242B06D900F0F8FE91
:1031E000162303600020BDE8F0873A4F8E467646EE
:1031F0001EF8014BE55D15F00805F8D12D2C34D1F2
:103200009EF800404FF0010806F1020E002B5CD042
:10321000102B0CD1302C0AD19EF8004004F0DF04B2
:10322000582C4DD19EF8014010230EF1020E08F1EA
:10323000004C0CF1FF3C0026BCFBF3F9354603FBC8
:1032400019CAA4F13007092F18D83C46A34224DD3F
:10325000002E1FDBA9451DD301D1A2451ADB05FBBA
:10326000034501261EF8014BEBE72B2C08BF9EF807
:103270000040A84608BF06F1020EC7E7A4F14107C7
:10328000192F01D8373CE1E7A4F16107192F04D8C1
:10329000573CDBE74FF0FF36E4E7002E05DA222348
:1032A0000360654642B928469DE7B8F1000F00D09B
:1032B0006D42002AF7D00EB10EF1FF311160F2E736
:1032C0003024002BB3D10823B1E7302CA4D00A233B
:1032D000ADE700BFE9610008FFF77ABF2DE9F74FBE
:1032E00003690C69A3420746C0F28180013C01F1E9
:1032F000140800F1140505EB8403019358F82430F9
:1033000055F8242001339A424FEA840B08EB8409D4
:10331000B2FBF3F631D34FF0000E4046AC46F24616
:1033200050F8042B93B206FB03E34FEA134E9BB213
:10333000AAEB0303120CDCF800A006FB02E213FA6E
:103340008AF34FEA124E1FFA82FADCF80020CAEB29
:10335000124202EB23429BB243EA024381454CF8FE
:10336000043B4FEA224ADBD255F80B302BB9019BC4
:10337000043B9D421A462ED33C61384601F092FC34
:10338000002824DB013628464FF0000C58F8042BA7
:10339000D0F800E093B2ACEB0303120C13FA8EF3F7
:1033A000C2EB1E4202EB23429BB243EA0243C145F9
:1033B00040F8043B4FEA224CE8D255F8242005EBB4
:1033C000840322B9043B9D421A460AD33C6130462D
:1033D00003B0BDE8F08F1268043B002ACCD1013C59
:1033E000C7E71268043B002AF0D1013CEBE700205C
:1033F000EEE70000000000002DE9F04F2DED028BFC
:1034000057EC106B95B0456ADDF880800591CDE9E9
:103410000267044609920F9375B9102001F052F922
:103420000246606220B9B24BEA21B24802F07CF851
:10343000C0E901550560C560636A196851B15A68F1
:103440004A60012393408B60204601F0A3F9636A30
:1034500000221A603B1EB9BF23F0004303930023F0
:10346000C8F80030DDF80C90A34BBCBF0122C8F8AF
:10347000002033EA09031BD10F9A42F20F73136045
:10348000C9F31303334300F07A85219B63B99B4B47
:1034900024E09B4B00930833219A1360009815B0E9
:1034A000BDEC028BBDE8F08F944B00930333F3E740
:1034B0009DED027B002251EC170B00238DED0A7B62
:1034C000FDF70AFB804658B10F9A01231360219B38
:1034D000002B00F051858B481860431E0093DDE7F8
:1034E0009DED0A0B12AA13A9204601F0FBFCC9F3BB
:1034F0000A558346002D7CD00B9BCDF84080C3F34A
:103500001303DDE90A6743F07F5747F44017A5F23C
:10351000FF357D4B002230463946FCF7BDFE6EA3D9
:10352000D3E90023FDF770F86DA3D3E90023FCF77E
:10353000B5FE064628460F46FCF7FCFF6AA3D3E912
:103540000023FDF761F802460B4630463946FCF78A
:10355000A5FE06460F46FDF707FB00228246002324
:1035600030463946FDF7C2FA48B15046FCF7E2FF53
:1035700032463B46FDF7B0FA08B90AF1FF3ABAF114
:10358000160F54D8614B03EBCA03D3E90023DDE9DE
:103590000A01FDF7ABFA00284BD00AF1FF3A0023ED
:1035A0000E93129B5D1B6B1E049343BF0023C5F15A
:1035B000010804934FF00008BAF1000F3BDB049BB5
:1035C000CDF834A05344049300230693059B092BA4
:1035D00069D8052BC4BF043B0593059BA3F10203E7
:1035E000CCBF00250125032B69D8DFE803F02C4E62
:1035F0004C5ADDE912531D4405F23243202BC1BF62
:10360000C3F1400305F2124009FA03F326FA00F071
:10361000DABFC3F1200306FA03F01843FCF77AFF80
:1036200001230646A1F1F877013D109371E70123CC
:10363000B6E70E90B5E7CAF1000306930023A8EBA6
:103640000A080D93C2E700230893099B002B39DC7D
:103650004FF00109CDF804904B46CDF82490606AF4
:1036600000224260042202F114069E4241682FD9D2
:10367000204601F04FF8009000284BD1244B024621
:103680004FF4D571D1E60123DEE700230893099BAF
:103690000AEB030909F10103012B0193B8BF0123D0
:1036A000DDE70123F2E701250023059308954FF09C
:1036B000FF390022CDF8049012230992CFE70123AD
:1036C0000893F4E7DDF82490CDF804904B46C6E764
:1036D000013141605200C6E761436F63A787D23F63
:1036E000B3C8608B288AC63FFB799F501344D33FF1
:1036F000F66200080D6300080000F07FF262000827
:10370000E96200086D6100080000F83F8864000865
:103710006C630008636A009A1A60019B0E2B00F22A
:10372000AD80002D00F0AA80BAF1000F36DDC34A4B
:103730000AF00F0302EBC30393ED007B1AF4807FC2
:103740004FEA2A17B0EE478AF0EE678A16D0BC4BD4
:10375000DDE90A01D3E90823FDF780F8CDE902018C
:1037600007F00F070325B64E57B9DDE9020153EC08
:10377000182BFDF773F8CDE9020129E00225F2E7E5
:10378000F90708D551EC180BD6E90023FCF73CFFEC
:1037900041EC180B01357F100836E5E700F0A680F4
:1037A000CAF10006A54BA64F06F00F0203EBC203B9
:1037B000D3E90023DDE90A01FCF726FFCDE9020188
:1037C000361100230225002E40F08580002BD2D137
:1037D0000E9B002B00F08C80DDE90267994B0022E4
:1037E00030463946FDF782F9002800F08180019BC0
:1037F000002B7DD0B9F1000F3CDD0AF1FF330793B8
:103800000022914B30463946FCF7FEFECDE902011D
:103810000135CDF83090DDE902672846FCF78AFED5
:1038200032463B46FCF7F0FE884B0022FCF736FDA3
:10383000A1F15073CDE9020103930C9B002B5CD1E5
:10384000834B002230463946FCF726FDDDE9022392
:1038500006460F46FDF768F9002840F09682DDE93C
:103860000221304601F100433946FDF73FF90028B7
:1038700040F08882DDE90A23CDE90223139B002B67
:10388000C0F25881BAF10E0F00F354816B4B03EB79
:10389000CA03D3E90089099B002B80F2E380019BD6
:1038A000002B00F3DF8040F06D82694B0022404620
:1038B0004946FCF7A9FEDDE90223FDF72BF9019E3D
:1038C0003746002840F04382009D312305F8013B34
:1038D0000AF1010A3FE2F20705D5D7E90023FCF718
:1038E00093FE01350123761008376CE702256FE758
:1038F000019BCDF81CA00C938DE700990C980C9AB5
:103900004E4B9DED027B014402910899B0EE478A2F
:10391000F0EE678A03EBC20353E90223002945D086
:103920004C490020FCF79AFF53EC182BFCF7B4FC31
:10393000009D41EC180B39463046FDF715F90C9007
:10394000FCF7F8FD02460B4630463946FCF7A4FC6E
:103950000C9B303305F8013B53EC182B06460F4601
:10396000FDF7C4F8002865D132463B4635490020B2
:10397000FCF792FC53EC182BFDF7B8F8002840F048
:10398000B980029B9D423FF475AF2F4B51EC180B51
:103990000022FCF739FE2C4B41EC180B002230467C
:1039A0003946FCF731FE06460F46C4E751EC170BCB
:1039B000FCF72AFE029B009D0C9341EC180B394644
:1039C0003046FDF7D1F81190FCF7B4FD02460B46E6
:1039D00030463946FCF760FC119B303305F8013B5B
:1039E000029B9D4206460F464FF0000234D1194B10
:1039F00051EC180BFCF752FC02460B463046394698
:103A0000FDF792F8002875D153EC182B11490020CE
:103A1000FCF742FC02460B4630463946FDF766F895
:103A200000283FF427AF0C9D6B1E0C9315F8013C4A
:103A3000302BF8D0DDF81CA04AE000BF88640008F5
:103A4000606400080000F03F0000244000001C40BB
:103A5000000014400000E03FAF4BFCF7D5FD0646E8
:103A60000F46ACE7DDE90267009D42464B46304613
:103A70003946FCF7F3FEFDF777F80290FCF75AFDA4
:103A800042464B46FCF7C0FD02460B4630463946DF
:103A9000FCF702FC029E019F303605F8016B009E88
:103AA000AE1BB74202460B4637D1FCF7F7FB424646
:103AB0004B4606460F46FDF737F8C8B942464B4617
:103AC00030463946FDF708F810B1029BD9070FD4EC
:103AD0002046594600F05EFE00232B700F9B0AF132
:103AE00001001860219B002B3FF4D8AC1D60D5E489
:103AF000CDF81CA02B461D4613F8012D392A08D1FC
:103B0000009A9A42F7D1079A00990132079230221F
:103B10000A701A7801321A708CE77F4B0022FCF78A
:103B200073FD0022002306460F46FCF7D5FF002850
:103B30009BD0CDE7089A002A00F0C480059A012A9C
:103B400000F3A880109A002A00F0A08003F233430B
:103B5000069E4546049A01211A4420469844049240
:103B600000F01EFF0746002D0BDD049B002B08DD37
:103B7000AB42049AA8BF2B46A8EB0308ED1AD31A50
:103B80000493069BFBB1089B002B00F09F80002E46
:103B900011DD39463246204600F0BEFF5A46014646
:103BA0000746204600F012FF59460790204600F0D5
:103BB000F1FD079B9B46069B9A1B04D05946204665
:103BC00000F0AAFF83460121204600F0E9FE0D9B8C
:103BD000002B06467CDD1A460146204600F09CFF7D
:103BE000059B012B064676DD00230693336906EB21
:103BF0008303186900F084FEC0F12000049B184480
:103C000010F01F0000F08680C0F12003042B7FDD40
:103C1000C0F11C00049B0344804405440493B8F1A4
:103C2000000F05DD59464246204600F0CFFF83468F
:103C3000049B002B05DD31461A46204600F0C6FFE6
:103C400006460E9B002B69D03146584601F02AF8F3
:103C5000002863DA002359460A22204600F0BCFD02
:103C6000089B0AF1FF3A8346002B00F08F8139460A
:103C700000230A22204600F0AFFDB9F1000F0746ED
:103C800000F38E80059B022B50DC89E0129BC3F170
:103C900036035DE7019B5E1E069BB342BFBF069BDA
:103CA0000696F21A0D9BB6BF9B189E1B0D93019BA7
:103CB000B8BF0026002BB5BFA8EB0305019B00236E
:103CC000454647E7069E089F45464CE7069A75E736
:103CD000059B012B18DC029BB3B9039BC3F31303B1
:103CE000A3B9039B23F000431B0D1B052BB1049BC1
:103CF0000133049308F10108012306930D9B002B67
:103D00007FF474AF012079E70023F6E7029BF4E724
:103D100085D018461C307DE700002440019B002B15
:103D200038DC059B022B35DDDDF80490B9F1000F7E
:103D30000DD131464B460522204600F04DFD01468F
:103D40000646584600F0AEFF00283FF7BDAD099B80
:103D5000009D6FEA030A4FF000083146204600F04C
:103D600019FD002F3FF4B4AEB8F1000F05D0B845EF
:103D700003D04146204600F00DFD3946204600F0B4
:103D800009FDA5E600263746E1E70C9EDDF81CA0FC
:103D9000374699E5089BDDF80490002B00F0FD8084
:103DA000002D05DD39462A46204600F00FFF074664
:103DB000069B002B5CD07968204600F0ABFC0546E2
:103DC00028B9804B024640F2EA21FFF72EBB3A6940
:103DD0000232920007F10C010C3000F08DFC012240
:103DE0002946204600F0F2FE009B01330193009B20
:103DF0004B440793029B03F00103B8460693074622
:103E0000019B3146013B58460293FFF767FA034690
:103E10003033049041465846089300F043FF3A4639
:103E200081463146204600F059FFC268089B05468E
:103E300002BB0146584600F035FF089B0246294662
:103E40002046CDE9083200F0A5FC059B099A019DAA
:103E500043EA0201069B0B43089B0DD1392B29D065
:103E6000B9F1000F01DD049B3133029A137074E73E
:103E70003846B9E70122E2E7B9F1000F06DB059900
:103E800041EA0909069959EA010120D1002AECDD2D
:103E9000594601222046019300F098FE31468346A0
:103EA00000F000FF0028019B02DCDED1DA07DCD540
:103EB000392BD8D1029A392313702B461D46013B6A
:103EC00015F8012C392A50D001321A7045E7002A22
:103ED00003DD392BEED00133C7E7019A079902F8C9
:103EE000013C8A422AD0594600230A22204600F08B
:103EF00073FCB84583464FF000034FF00A02414679
:103F0000204607D100F068FC80460746019B01333C
:103F1000019375E700F060FC3946804600230A22D1
:103F2000204600F059FC0746F0E7B9F1000F009A6F
:103F3000CCBF4D46012515444FF0000859460122DB
:103F40002046019300F042FE3146834600F0AAFE6F
:103F50000028B2DC02D1019BDB07AED42B461D4604
:103F600013F8012D302AFAD0F7E6009A9A42A5D12B
:103F70000AF1010A312379E7134BFFF7AFBA219B0E
:103F8000002B7FF486AA114BFFF7A8BAB9F1000FF6
:103F900003DC059B022B3FF7C9AE009D3146584616
:103FA000FFF79CF900F1300305F8013B009AAA1ACB
:103FB0009145BADD594600230A22204600F00CFC48
:103FC0008346EBE76C6300086C610008E962000857
:103FD000014B1868704700BF000000200369B3EB75
:103FE000611F2DE9F0434FEA611200F1140445DD31
:103FF00011F01F0104EB830604EB82050CD100F1E4
:1040000010072946B14234D39B1A9B00EA1E964200
:1040100038BF0023234415E054F82270C1F1200872
:10402000CF4005F1040EA1467645F44615D89B1AFB
:104030009A00043A0135AE4238BF0022A318A750B7
:1040400007B104331A1BA3424FEAA20208BF0023A0
:10405000026108BF4361BDE8F083DCF800C00CFAE0
:1040600008FC4CEA070749F8047B5EF8047BCF4064
:10407000DAE751F804CB47F804CFC3E72346E1E77A
:10408000A0F13003092B02D82038C0B27047A0F14C
:104090006103052B01D84738F7E7A0F14103052B51
:1040A00001D82738F1E70020704700002DE9F04FD4
:1040B0002DED028B89B008EE100A0493BC4B1B68EF
:1040C000019318468B469046FCF78AF8019BDBF873
:1040D00000200344824613F8013C0593931CC2F16F
:1040E000FF2202F57F02FE32D1181F4613F8010BA2
:1040F00000913028F8D0FFF7C3FF044600283AD1DA
:1041000001995246384601F0EFF90546002868D17A
:1041100017F80A0007EB0A06FFF7B2FF002862D083
:104120003346187830281F4603F10103F9D0FFF712
:10413000A7FF0123B0FA80F46409354600933A469C
:10414000164601323078FFF79BFF0028F8D101991D
:104150005246304601F0C8F980B94DB906EB0A0560
:104160002A46164601323078FFF78AFF0028F8D138
:10417000AD1BAD0004E000242546E0E7002DF7D19B
:10418000337803F0DF03502B3BD173782B2B2CD0EB
:104190002D2B2ED0711C4FF000090878FFF770FF0F
:1041A000431EDBB2182B2CD8A0F1100211F8010F1E
:1041B000FFF766FF431EDBB2182B1DD9B9F1000FC4
:1041C00000D052421544CBF80010E4B1009B002B04
:1041D00014BF00270627384609B0BDEC028BBDE8A6
:1041E000F08F3E4625460124CAE74FF00009B11C76
:1041F000D3E74FF00109FAE70A2303FB0202103A62
:10420000D4E73146DFE7F31B013B2146072B0BDCEC
:1042100018EE100A00F07EFA044640B9654B0246DB
:10422000DE21654801F080F901315B10EEE700F115
:1042300014094FF0000BCAF10103CDF80890CDF836
:1042400000B00693B74240D30298009B40F8043B6D
:10425000A0EB0900801046012061184600F050FBD9
:10426000301AD8F80060B04263DD871B394620461B
:1042700000F0EAFE8246A8B17B1E591103F01F022E
:1042800059F821104FF0010A0AFA02F20A4209D045
:10429000534505DDB91E204600F0D6FE002845D165
:1042A0004FF0020A39462046FFF798FE3D44D8F801
:1042B0000830AB424CDA18EE100A214600F06AFAD8
:1042C000149A00231360A32785E7731E059A0393AE
:1042D00016F8013C934219D0BBF1200F07D1029B85
:1042E000009A43F8042B0293002300939B4616F890
:1042F000010CFFF7C5FE009B00F00F0000FA0BF069
:10430000034300930BF1040B039B0DE0039B069A00
:104310001344BB42E0D3184601990793524601F07B
:10432000E3F8079B0028D7D11E468BE74FF0030A1E
:10433000B8E70ADA371A214618EE100A3A4600F0B2
:1043400045FCED1B044600F114094FF0000AAEE7EE
:10435000D8F80400A84272DD451BAE4236DCD8F81E
:104360000C30022B2AD0032B2CD0012B15D1AE42BE
:1043700013D1012E0BD1049AD8F804301360012315
:104380002361C9F80030149B62271C6023E7711E6B
:10439000204600F059FE0028EDD118EE100A214603
:1043A00000F0F8F9149A00231360502713E700BFB8
:1043B000E86300086C6300087D630008159B002B10
:1043C000EBD1D8E7159B002BD5D1E6E76F1EBAF1EC
:1043D000000F31D127B13946204600F035FE824624
:1043E0007B11012159F8233007F01F0701FA07F765
:1043F0001F422946204618BF4AF0020A761BFFF7E3
:10440000EDFDD8F804500227BAF1000F48D0D8F8D3
:104410000C30022B15D0032B17D0012B09D11AF029
:10442000020F06D0D9F800004AEA000A1AF0010F7C
:104430000ED147F0100733E04FF0010AD0E7012713
:10444000E2E7159BC3F101031593159B002BF0D0F8
:10445000D4F810B004F114034FEA8B0A03EB8B017C
:104460004FF0000C184653F8042BB2F1FF3F1CD05C
:1044700001320260022F04F114033FD1D8F800206A
:10448000013AB2420AD17111012253F8213006F0EB
:104490001F0602FA06F61E4218BF174647F020070D
:1044A000149B1C60049B1D6095E6994243F804CC64
:1044B000D8D8A3689B4519DB616818EE100A013152
:1044C00000F028F9814618B91A4B02468421A8E663
:1044D0002269023204F10C0192000C3000F00CF958
:1044E000214618EE100A00F055F94C4623695A1C73
:1044F00004EB8303226101225A61BBE722695A451A
:104500000BDD01212046FFF769FDD8F808300135A1
:10451000AB42FFF6D0AE0127C0E716F01F06FAD077
:104520009A44C6F120065AF8040C00F0E9F9B042AA
:10453000E7DBF0E76C630008C2F10802920070B597
:10454000C2F120064368046803FA06F52C43D34001
:10455000046040F8043F8842F4D370BD30B503686E
:10456000013311F8014B14B90360012030BD13F879
:10457000012BA2F14105192D98BF2032A242F0D0A3
:104580000020F3E72DE9F04F0B6801685E1102EBA4
:10459000860613F01F0387B018BF04360025371FA7
:1045A00082469046019346F8045CB9463C46029523
:1045B000AB464A784B1C039342B3104605910492D4
:1045C000FFF75EFD00284FD1049A0599202A18D8DC
:1045D000029B9B4513DD4C4506D2072D04DC2A4681
:1045E00049462046FFF7A8FF444550D90023A4F1CF
:1045F000040944F8043CCDF808B04C461D46039924
:10460000D7E7292A56D10231CAF80010BBF1000FB2
:1046100050D04C4506D2072D04DC2A464946204698
:10462000FFF78AFF444534D9A8F10402234653F822
:10463000041B42F8041F9F42F9D23B1B23F00303E3
:1046400004330134033EB44288BF042343440022B0
:1046500043F8042B9F42FBD23B681BB9474527D147
:1046600001233B60052026E00135082D0BF1010BED
:1046700006DD4445C3D9002344F8043C0125043C2D
:10468000226800F00F0040EA02122260B7E7082516
:10469000B5E7019B002BDFD04FF0FF32C3F12003C1
:1046A00022FA03F356F8042C1A4046F8042CD3E7F8
:1046B000043FD1E7042007B0BDE8F08F0048704701
:1046C00058010020024B0146186800F03DBD00BFB4
:1046D0000000002082B001B901A942B14BB11378AA
:1046E0000B601278101E18BF012002B070471046F0
:1046F000FBE76FF00100F8E70A44914200F1FF3355
:1047000000D1704710B511F8014B03F8014F9142E9
:10471000F9D110BD70B5466A04460D4676B9102031
:10472000FFF7D0FF0246606220B9184B1848662197
:1047300000F0FAFEC0E901660660C660666AF368CA
:1047400083B1636ADB6853F82500B8B9012101FA27
:1047500005F6721D9200204600F097FC60B1C0E99A
:1047600001560EE021220421204600F08EFC636AEF
:10477000F060DB68002BE4D1002070BD026843F8D4
:1047800025200023C0E90333F7E700BFF6620008E5
:10479000FC63000870B5466A05460C4676B91020E1
:1047A000FFF790FF0246686220B9094B09488A2149
:1047B00000F0BAFEC0E901660660C6603CB16B6AF3
:1047C0006268DB6853F82210216043F8224070BD14
:1047D000F6620008FC6300082DE9F0410E69074607
:1047E00098460C4601F1140000230568A9B202FBAB
:1047F00001814FEA114C2D0C02FB05C589B2013332
:1048000001EB05419E4240F8041B4FEA1548ECDCE1
:10481000B8F1000F22D0A368B34219DC61683846B2
:104820000131FFF777FF054628B902460D4B0E48C8
:10483000B52100F079FE2269023204F10C019200E8
:104840000C30FFF759FF21463846FFF7A3FF2C46EF
:1048500004EB86030136C3F8148026612046BDE8C8
:10486000F08100BF6C630008FC6300082DE9F84389
:104870000C4615461F4609220833064693FBF2F301
:10488000002101229A4209DB3046FFF743FF40B97D
:104890000246194B1948CE2100F046FE5200013164
:1048A000F0E7089B4361092D4FF00103036116DD1A
:1048B00004F10909C8462C4418F8013B0146303B75
:1048C0000A223046FFF788FFA045F5D1A5F108047C
:1048D0004C442D1B6319BB4204DBBDE8F8830A344A
:1048E0000925F6E714F8013B0146303B0A22304621
:1048F000FFF772FFEEE700BF6C630008FC6300087F
:10490000030C1B04D3B90004102310F07F4F04BF25
:104910000002083310F0704F04BF0001043310F0A0
:10492000404F04BF80000233002805DB10F0804FA9
:1049300003F1010308BF2023184670470023E4E772
:10494000036813F0070201460BD0DA0724D4980756
:1049500049BF5B089B0801200B605CBF0B60022015
:10496000704798B2B0B91B0C102013F0FF0F04BFB2
:104970001B0A08301A0704BF1B0904309A0704BF3A
:104980009B080230DA0703D45B0800F1010005D070
:104990000B6070471046E8E7002070472020704702
:1049A00010B50C460121FFF7B5FE024628B9054BAC
:1049B00005484FF4A07100F0B7FD01234461036185
:1049C00010BD00BF6C630008FC6300082DE9F04FC8
:1049D00014460A6923699A42B8BF0B460D46BCBF0C
:1049E00025461C46D5F810A0D4F81090AB6869682D
:1049F0000AEB0907BB4285B0B8BF0131FFF78AFE59
:104A000030B90246424B434840F25D1100F08CFD44
:104A100000F1140606EB87083346002243451ED3F7
:104A200005F1140C04F114030CEB8A0C03EB89025E
:104A30000292ACEB0502153A22F00302043205F1B2
:104A400015018C4538BF04220192029A03939A42C1
:104A500008D8002F55DC076105B0BDE8F08F43F89A
:104A6000042BDBE7B3F800A0BAF1000F20D005F16A
:104A7000140EB14600225EF8044BD9F800B0A1B282
:104A80001FFA8BFB0AFB01B11144D9F80020240C5A
:104A9000120C0AFB042404EB114489B241EA0441DC
:104AA000F44549F8041B4FEA1442E4D801997250C6
:104AB000039AB2F802900433B9F1000F1FD03468A2
:104AC00005F11401B6464FF0000A0A88BEF802B09C
:104AD00009FB02B29244A4B244EA0A444EF8044BE1
:104AE00051F8044BBEF80020240C09FB042404EB0D
:104AF0001A448C454FEA144AE7D8019AB450043658
:104B0000A3E758F8043D002BA5D1013FA1E700BF62
:104B10006C630008FC6300082DE9F843154612F0A9
:104B2000030206460F4607D0254C013A002354F8ED
:104B30002220FFF751FE0746AD103DD0746A7CB9C4
:104B40001020FFF7BFFD0246706228B91D4B1E48BA
:104B50004FF4D77100F0E8FCC0E901440460C46080
:104B6000D6F82480D8F808404CB940F2712130467C
:104B7000FFF716FF0023C8F80800044603604FF053
:104B80000009EB070AD5394622463046FFF71EFFDB
:104B9000394680463046FFF7FDFD47466D100BD085
:104BA000206838B9224621463046FFF70FFF2060C3
:104BB000C0F800900446E4E73846BDE8F88300BF3B
:104BC00050650008F6620008FC6300082DE9F04714
:104BD0000C464968236903EB6218A36807469146AF
:104BE0004FEA621A08F10106B3420BDB3846FFF7C1
:104BF00091FD054648B90246284B294840F2D91193
:104C000000F092FC01315B00EEE7002300F114019B
:104C100000F110021846534533DB20692AEAEA7A8C
:104C200004F1140319F01F0901EB8A0103EB800C56
:104C30002BD0C9F1200E8A460022186800FA09F02C
:104C400002434AF8042B53F8042B9C4522FA0EF237
:104C5000F3D8ACEB0403153B23F00303043304F156
:104C60001500844538BF0423CA500AB108F1020672
:104C7000013E38462E612146FFF78CFD2846BDE8EF
:104C8000F08742F8040F0133C5E7043953F8042BC9
:104C900041F8042F9C45F9D8EAE700BF6C6300088F
:104CA000FC63000830B502690C69121B0ED100F1DB
:104CB0001403143103EB840001EB840150F8045D0C
:104CC00051F8044DA54203D005D30122104630BD52
:104CD0008342F3D3FAE74FF0FF32F7E72DE9F84FBD
:104CE0000C460646114620461746FFF7DBFF051E19
:104CF00010D129463046FFF70DFD30B9394B024639
:104D000040F23221384800F00FFC0123C0E904359D
:104D1000BDE8F88FA4BF3B46274630467968A6BF5A
:104D20001C4600250125FFF7F5FC20B92D4B024656
:104D30004FF41071E6E73E69C560256907F114017B
:104D400004F1140900F1140E07F1100201EB860CB6
:104D500009EB8505F246002759F8043B52F804BFD9
:104D60001FFA83F817FA8BF71B0CA7EB0808C3EBA5
:104D70001B4303EB28431FFA88F81F144D4548EAEC
:104D800003434AF8043BE7D82B1B153B23F00303EE
:104D900004331534A54238BF0423194473449E4696
:104DA0000D4665450ED30CF10302521A22F00302A0
:104DB00003398C4538BF00221A4452F8043D7BB1B8
:104DC0000661A5E755F8048B17FA88F4221402EB64
:104DD0001842A4B244EA02444EF8044B1714E0E728
:104DE000013EEAE76C630008FC63000882B08DEDC9
:104DF000000B019B12491940A1F15071002905DDFA
:104E000000220B4643EC102B02B070474942B1F12F
:104E1000A07F4FEA21504FF000024FF0000304DA68
:104E20004FF4002141FA00F3ECE7A0F114011E2930
:104E3000DABF4FF0004020FA01F101210A46E1E714
:104E40000000F07FF8B5056900F1140707EB850550
:104E50002E1F55F8044C2046FFF752FDC0F12003E9
:104E60000A28DFF87CC00B6014DCC0F10B0E24FABA
:104E70000EF1B74241EA0C0334BF55F8081C00217B
:104E8000153004FA00F021FA0EF140EA010243EC79
:104E9000102BF8BDB7423ABF55F8081CA5F108061B
:104EA00000210B3817D0C0F1200C04FA00F5BE42E7
:104EB00021FA0CF445EA04058CBF56F8044C002492
:104EC00045F07F5301FA00F024FA0CF443F4401348
:104ED00040EA0402DBE744EA0C030A46D7E700BFD6
:104EE0000000F03F2DE9F7438946012157EC106B94
:104EF0009046FFF70FFC044630B90246254B264882
:104F000040F20A3100F010FBC7F30A55C7F3130350
:104F100035BB002E019328D068460096FFF710FDA0
:104F2000009900B3019AC0F1200302FA03F30B4386
:104F3000C24063610192019BA361002B14BF022256
:104F400001222261D5B1A5F233450544C9F80050CC
:104F5000C0F13500C8F80000204603B0BDE8F0837A
:104F600043F48013D5E76161E5E701A8FFF7E8FCAA
:104F7000019B6361012222612030E3E704EB82039D
:104F8000A0F23240C9F800001869FFF7B9FCC0EB85
:104F90004210DFE76C630008FC6300082DE9F74F5F
:104FA000884669468146FFF74DFF01A9404655EC0A
:104FB000104BFFF747FFD9F81030D8F81020A3EBBB
:104FC000020CDDE900329B1A03EB4C1351EC100B81
:104FD000002BD6BF0A462A46C3EB03338B462F4627
:104FE000D4BF02EB035B02EB0357204610EE102AFE
:104FF0005B463946FBF732FC41EC100B03B0BDE8D1
:10500000F08F013970B549111469013102F11403AF
:1050100000EB810103EB8404051FA3420CD3A31A08
:10502000113B23F003031132A24288BF002318442E
:105030000023884205D370BD53F8046B45F8046F14
:10504000EBE740F8043BF4E700F1140200694B1170
:10505000984210B511DB0ADD11F01F0107D052F89C
:10506000234024FA01F000FA01F18C420BD102EB4B
:105070008303934203D8002010BD0346F7E753F89B
:10508000041D0029F5D00120F6E713B54A43114667
:10509000019200F059F8044618B1019A0021FCF77A
:1050A000C1FB204602B010BD37B5002948D051F8E9
:1050B000043C0190002BA1F10404B8BFE41800F0F7
:1050C0007DFA204A01981368154633B9636014606D
:1050D00003B0BDE8304000F077BAA3420BD9216895
:1050E0006218934204BF1A685B68636004BF521879
:1050F00022602C60ECE71A465B680BB1A342FAD938
:1051000011685518A5420BD1246821445418A342B4
:105110001160DDD11C685B68536021441160D7E7E2
:1051200002D90C230360D3E7256861198B4204BFC1
:1051300019685B68636004BF491921605460C7E760
:1051400003B030BDFC010020F8B5CD1C25F00305EF
:1051500008350C2D38BF0C25002D064601DBA94271
:1051600003D90C2333600020F8BD00F027FA214951
:105170000A6814469CB9204F3B6823B92146304643
:1051800000F0A2F938602946304600F09DF9431C32
:1051900023D10C233360304600F016FAE3E723688E
:1051A0005B1B17D40B2B03D923601C44256004E040
:1051B0006368A2420CBF0B605360304600F004FAF3
:1051C00004F10B00231D20F00700C21ACCD01B1ADB
:1051D000A350C9E722466468CCE7C41C24F003044A
:1051E000A042E3D0211A304600F06EF90130DDD143
:1051F000CFE700BFFC010020000200202DE9F047AE
:105200008E689E4282460C4690461F4638D88A8950
:1052100012F4906F32D025680969A5EB0109656920
:1052200005EB450505EBD57501334B446D109D42EB
:1052300038BF1D46530531D52946FFF785FF064681
:1052400050B90C23CAF80030A38943F04003A3816E
:105250004FF0FF30BDE8F08721694A46FFF74CFA6E
:10526000A38923F4906343F08003A38126616561E1
:105270004E44A5EB09052660A5603E46BE4200D916
:105280003E4632462068414600F07EF9A368226817
:105290009B1B3244A36022600020DBE72A4600F01B
:1052A00099F906460028E1D121695046FFF7FCFE36
:1052B000C7E700002DE9F04F98468B891B069DB08B
:1052C00007460D4614460ED50B6963B94021FFF71A
:1052D0003BFF2860286120B90C233B604FF0FF3072
:1052E000D1E040236B610023099320238DF82930FE
:1052F000CDF80C803023DFF8A8818DF82A304FF0EC
:10530000010923469A4613F8012B0AB1252AF9D13F
:10531000BAEB040B0BD05B46224629463846FFF712
:105320006DFF013000F0AA80099A5A4409929AF858
:105330000030002B00F0A28000234FF0FF32CDE9B7
:1053400005230AF1010A049307938DF853301A9349
:105350005446052214F8011B5148FAF749FF049AF4
:10536000D8B9D00644BF20238DF85330110744BF6D
:105370002B238DF853309AF800302A2B15D0079A3A
:10538000544600204FF00A0C214611F8013B303BF7
:10539000092B4ED9B0B1079214E0A0EB080309FA2B
:1053A00003F313430493A246D2E7039B191D1B6822
:1053B0000391002BBBBF5B4242F0020207930793AD
:1053C000B8BF049223782E2B0CD163782A2B35D1C9
:1053D000039B1A1D1B680392002BB8BF4FF0FF33CD
:1053E00002340593DFF8C8A0217803225046FAF76B
:1053F000FFFE40B14023A0EB0A0003FA00F0049B3B
:1054000003430134049314F8011B26488DF8281037
:105410000622FAF7EDFE002838D0234B1BBB039B76
:10542000073323F0070308330393099B334409939D
:1054300067E70CFB02320C460120A5E7002301348C
:10544000059319464FF00A0C204610F8012B303A0C
:10545000092A03D9002BC5D00591C3E70CFB012114
:1054600004460123F0E703AB00932A460F4B04A93F
:105470003846FCF77FFA421C0646D6D1AB895B065C
:105480003FF52CAF09981DB0BDE8F08F03AB00933A
:105490002A46064B04A93846FCF710FDEBE700BF8F
:1054A0005C6500086665000875190008FD51000874
:1054B00062650008000000009FED010B704700BF0F
:1054C000000000000000F87F38B5064D00230446B8
:1054D00008462B6000F014FE431C02D12B6803B178
:1054E000236038BD1802002010B56AB10139841854
:1054F00010F8013B11F8012F934203D1A04201D0D3
:10550000002BF5D1981A10BD1046FCE749B1FF2ACF
:1055100085BF8A2303600A704FF0FF3098BF0120D7
:1055200070470846704700001FB514461A46094BDD
:105530001B680546D8684CB1074B0091CDE9013492
:1055400006492B4600F00EF800F084FA044B1C4686
:10555000F3E700BF000000206D6500087A650008D1
:10556000A86500080EB403B5014603AB054853F81F
:10557000042B0068019300F07DF802B05DF804EBA5
:1055800003B0704700000020884210B501EB020410
:1055900002D98442234607D8431EA14208D011F8FD
:1055A000012B03F8012FF8E7024401468A4200D19B
:1055B00010BD13F8014D02F8014DF7E7014800F066
:1055C00009BC00BF20020020014800F004BC00BF5D
:1055D00020020020F8B5074614460E4621B9BDE862
:1055E000F8401146FFF7B0BD22B9FFF75DFD254633
:1055F0002846F8BD00F054FCA0420FD221463846A0
:10560000FFF7A2FD05460028F2D031462246FFF7FB
:1056100073F831463846FFF747FDE9E73546E7E7D7
:105620009368013B002B10B4936008DA9469A3429D
:1056300001DB0A2903D15DF8044B00F04BB9136874
:10564000581C1060197008465DF8044B7047F8B597
:1056500006460F461446D518AC4201D1002007E09B
:1056600014F8011B3A463046FFF7DAFF431CF3D12A
:10567000F8BD00002DE9F04F0D469DB01446984648
:10568000064618B183690BB900F006FB894B9D42B1
:105690001BD175686B6ED90705D4AB899A0502D406
:1056A000A86D00F097FBAB891B0701D52B69EBB9FF
:1056B0002946304600F060F9C0B16B6EDC070ED5AC
:1056C0004FF0FF301DB0BDE8F08F7B4B9D4201D104
:1056D000B568DFE7794B9D4208BFF568DAE7AB892B
:1056E0009805EDD4A86D00F076FBE9E70023099357
:1056F00020238DF82930CDF80C803023DFF8C081CD
:105700008DF82A304FF0010923469A4613F8012BF1
:105710000AB1252AF9D1BAEB040B0BD05B4622461D
:1057200029463046FFF793FF013000F0AA80099A1E
:105730005A4409929AF80030002B00F0A28000230E
:105740004FF0FF32CDE905230AF1010A04930793D4
:105750008DF853301A935446052214F8011B58480B
:10576000FAF746FD049AD8B9D10644BF20238DF834
:105770005330130744BF2B238DF853309AF8003071
:105780002A2B15D0079A544600204FF00A0C2146C8
:1057900011F8013B303B092B4ED9B0B1079214E010
:1057A000A0EB080309FA03F313430493A246D2E7DC
:1057B000039B191D1B680391002BBBBF5B4242F08A
:1057C000020207930793B8BF049223782E2B0CD1C3
:1057D00063782A2B35D1039B1A1D1B680392002B7B
:1057E000B8BF4FF0FF3302340593DFF8E4A021780F
:1057F00003225046FAF7FCFC40B14023A0EB0A001C
:1058000003FA00F0049B03430134049314F8011BD2
:105810002C488DF828100622FAF7EAFC00283FD021
:10582000294B1BBB039B073323F007030833039368
:10583000099B3B44099367E70CFB02320C460120AD
:10584000A5E700230134059319464FF00A0C2046C2
:1058500010F8012B303A092A03D9002BC5D0059145
:10586000C3E70CFB012104460123F0E703AB0093DF
:105870002A46164B04A93046FCF77CF80746781CEC
:10588000D6D16B6ED90705D4AB899A0502D4A86D21
:1058900000F0A1FAAB895B063FF512AF099811E75A
:1058A00003AB00932A46094B04A93046FCF706FBDC
:1058B000E4E700BFCC650008EC650008AC650008B3
:1058C0005C65000866650008751900084F560008F9
:1058D00062650008F8B50E461446054618B183699E
:1058E0000BB900F0D9F9214B9C422BD16C68A3690C
:1058F000A360A3891A072FD523696BB32369206896
:10590000C01A6369F6B28342374604DC2146284652
:1059100000F02EF930BBA368013BA36023685A1C3A
:1059200022601E7063690130834204D0A389DB07C3
:1059300006D50A2E04D12146284600F019F988B967
:105940003846F8BD0A4B9C4201D1AC68CFE7094B01
:105950009C4208BFEC68CAE72146284600F00CF8D4
:105960000028CBD04FF0FF37EAE700BFCC65000836
:10597000EC650008AC650008324B70B51D68064642
:105980000C4625B1AB6913B9284600F085F92E4BBA
:105990009C420FD16C68A389B4F90C2019072CD450
:1059A000DD0611D40923336042F04003A3814FF098
:1059B000FF303EE0254B9C4201D1AC68EBE7244B25
:1059C0009C4208BFEC68E6E7580712D5616B41B10D
:1059D00004F14403994202D03046FFF765FB0023EF
:1059E0006363A38923F02403A381002363602369F5
:1059F0002360A38943F00803A38123694BB9A389DA
:105A000003F42073B3F5007F03D02146304600F045
:105A100007FAA089B4F90C2010F001030AD0002382
:105A2000A36063695B42A361236943B910F08000FE
:105A3000BAD170BD810758BF6369A360F4E7002045
:105A4000F7E700BF00000020CC650008EC65000807
:105A5000AC65000808B5062000F052FA012000F0FD
:105A600065FB00008A892DE9F041054610070C46C8
:105A700058D44B68002B05DC0B6C002B02DC00209B
:105A8000BDE8F081E66A002EF9D0002312F48052BE
:105A90002F682B6032D0606DA3895A0705D56368E3
:105AA000C01A636B0BB1236CC01A00230246E66A6E
:105AB000216A2846B047431CA38906D129681D29BD
:105AC0002CD82A4ACA40D60728D500226260D904B9
:105AD0002269226004D5421C01D12B6803B960659C
