:020000040800F2
:1000000000800120CD0800081D0900081D09000816
:100010001D0900081D0900081D0900080000000056
:100020000000000000000000000000001D090008A2
:100030001D090008000000001D0900081D09000836
:100040001D0900081D0900081D0900081D090008F8
:100050001D0900081D0900081D0900081D090008E8
:100060001D0900081D0900081D0900081D090008D8
:100070001D0900081D0900081D0900081D090008C8
:100080001D0900081D0900081D09000800000000E6
:100090000000000000000000000000001D09000832
:1000A0001D0900081D0900081D0900081D09000898
:1000B000F10700081D0900081D0900081D090008B6
:1000C0001D0900081D0900081D0900081D09000878
:1000D0001D0900081D0900081D0900080000000096
:1000E0006D0300081D0900081D090008000000003C
:1000F0000000000000000000000000001D090008D2
:10010000000000001D0900081D0900081D09000865
:1001100000000000000000000000000000000000DF
:100120001D0900081D0900081D0900081D09000817
:100130001D09000800000000000000000000000091
:100140000000000000000000000000001D09000881
:100150001D0900081D0900081D0900081D090008E7
:100160001D0900081D090008000000000000000033
:10017000000000000000000000000000000000007F
:10018000000000001D090008000000000000000041
:040190001D0900083D
:1001940010B5054C237833B9044B13B10448AFF3BD
:1001A40000800123237010BD000000200000000027
:1001B4006809000808B5034B1BB103490348AFF3B2
:1001C400008008BD00000000040000206809000849
:1001D40080B400AF114B1B68104A23F0070313606F
:1001E4000E4B0E4A1B6813600C4B1B680B4A43F4FE
:1001F400706313600A4B1B68094A43F001031360E0
:1002040000BF074B1B6803F00103002BF9D000BFAC
:1002140000BFBD465DF8047B704700BF003C024050
:100224000038024080B483B000AF0346FB7197F9F5
:100234000730002B0BDBFB7903F01F02074997F90A
:1002440007305B09012000FA02F241F8232000BFC5
:100254000C37BD465DF8047B704700BF00E100E049
:1002640080B483B000AF0346FB7197F90730002BCD
:100274000CDBFB7903F01F02074997F907305B0990
:10028400012000FA02F2603341F8232000BF0C374A
:10029400BD465DF8047B704700E100E080B483B0A4
:1002A40000AF03463960FB7197F90730002B0ADB76
:1002B4003B68DAB20C4997F907301201D2B20B4409
:1002C40083F800230AE03B68DAB20849FB7903F0BB
:1002D4000F03043B1201D2B20B441A7600BF0C3751
:1002E400BD465DF8047B704700E100E000ED00E0EE
:1002F40080B500AF194B5B6C184A43F480435364D8
:10030400174B5B69164A23F0F0035361144B5B6986
:10031400134A43F020035361124B1B68114A43F400
:10032400005313600F4B5B680E4A43F40053536051
:100334000C4BDB680B4A43F40053D360094B9B68B6
:10034400084A23F40053936001212820FFF7A6FFF5
:100354002820FFF767FF00BF80BD00BF00380240C0
:1003640000380140003C014080B500AF2820FFF771
:1003740077FF074B5B69064A43F400535361054B0F
:1003840001221A70044B00221A7000BF80BD00BF06
:10039400003C01401E0000201C00002090B482B0EC
:1003A40000AF0446084611461A462346FB7103462D
:1003B400BB710B467B7113463B71FB79032B00F039
:1003C4008E80032B00F3CE80012B02D0022B43D06E
:1003D400C8E0674B1B68664A43F001031360654B32
:1003E4001B687979BA79520001FA02F21146614A1E
:1003F4000B4313607B79012B22D15E4B1B68797907
:10040400BA795200013201FA02F2D2431146594A32
:100414000B401360574B5B68BA79012101FA02F271
:10042400D2431146534A0B405360524B9B6839796F
:10043400BA79520001FA02F211464E4A0B43936014
:100444004C4BDB68397CBA79520001FA02F211464E
:10045400484A0B43D36085E0454B1B68444A43F04C
:1004640002031360444B1B687979BA79520001FA8C
:1004740002F21146404A0B4313607B79012B22D1CF
:100484003D4B1B687979BA795200013201FA02F2C4
:10049400D2431146384A0B401360374B5B68BA7934
:1004A400012101FA02F2D2431146334A0B40536050
:1004B400314B9B683979BA79520001FA02F211463C
:1004C4002D4A0B4393602C4BDB68397CBA7952007C
:1004D40001FA02F21146284A0B43D36042E0244B4E
:1004E4001B68234A43F004031360244B1B68797987
:1004F400BA79520001FA02F21146204A0B43136002
:100504007B79012B22D11D4B1B687979BA79520072
:10051400013201FA02F2D2431146184A0B40136029
:10052400164B5B68BA79012101FA02F2D2431146F3
:10053400124A0B405360114B9B683979BA795200C7
:1005440001FA02F211460D4A0B4393600B4BDB6830
:10055400397CBA79520001FA02F21146074A0B4378
:10056400D36000BF00BF0837BD4690BC704700BFD2
:1005740030380240000002400004024000080240FB
:1005840080B483B000AF0346FB710B46BB711346C6
:100594007B71FB79032B42D0032B5EDC012B02D051
:1005A400022B1ED059E07B79002B02D0012B0BD0FB
:1005B40053E02D4B5B69BA79012101FA02F211462D
:1005C400294A0B4353610BE0274B5B69BA7901213C
:1005D40001FA02F2D2431146234A0B40536100BF91
:1005E4003BE07B79002B02D0012B0BD035E01F4B75
:1005F4005B69BA79012101FA02F211461B4A0B43E5
:1006040053610BE0194B5B69BA79012101FA02F2DB
:10061400D2431146154A0B40536100BF1DE07B795C
:10062400002B02D0012B0BD016E0114B5B69BA7979
:10063400012101FA02F211460D4A0B4353610BE00A
:100644000B4B5B69BA79012101FA02F2D2431146DC
:10065400074A0B40536100BF00BF00BF0C37BD46C3
:100664005DF8047B704700BF0000024000040240B4
:100674000008024080B483B000AF0346FB7197F9D1
:100684000730002B0BDBFB7903F01F02074997F9B6
:1006940007305B09012000FA02F241F8232000BF71
:1006A4000C37BD465DF8047B704700BF00E100E0F5
:1006B40080B483B000AF0346FB7197F90730002B79
:1006C4000CDBFB7903F01F02074997F907305B093C
:1006D400012000FA02F2603341F8232000BF0C37F6
:1006E400BD465DF8047B704700E100E080B483B050
:1006F40000AF03463960FB7197F90730002B0ADB22
:100704003B68DAB20C4997F907301201D2B20B44B4
:1007140083F800230AE03B68DAB20849FB7903F066
:100724000F03043B1201D2B20B441A7600BF0C37FC
:10073400BD465DF8047B704700E100E000ED00E099
:1007440080B582B000AF78603960274B1B6C264AB5
:1007540043F0010313644FF080431B684FF0804261
:1007640023F0100313604FF080431B684FF0804266
:1007740023F0080313604FF080435B684FF080421E
:1007840023F0700353604FF080423B68013BD36217
:100794007A6813469B0013445B004FF08042013B90
:1007A40093624FF080431B694FF0804223F00103B2
:1007B40013614FF08043DB684FF0804243F0010344
:1007C400D36002211C20FFF791FF1C20FFF752FF8A
:1007D4004FF080431B684FF0804243F001031360E5
:1007E40000BF0837BD4680BD0038024080B500AF69
:1007F4001C20FFF75DFF4FF080431B694FF08042E0
:1008040023F001031361044B02221A70034B0122EB
:100814001A7000BF80BD00BF1C0000201D00002016
:1008240080B582B002AFFFF7D3FC0023009300230E
:10083400012205210120FFF7B1FD002300930023CD
:1008440000220D210320FFF7A9FDFFF751FD144BF2
:1008540003221A70124B1B78022B16D0022B1DDCBC
:10086400002B02D0012B0AD018E04FF4C8614FF4DA
:100874009670FFF765FF0A4B01221A700FE0002201
:1008840005210120FFF77CFE09E00122052101205A
:10089400FFF776FE024B03221A7000E000BFD9E78F
:1008A4001C00002080B400AF064BD3F88830054A02
:1008B40043F47003C2F8883000BFBD465DF8047B82
:1008C400704700BF00ED00E0DFF834D00D480E495A
:1008D4000E4A002302E0D458C4500433C4188C4296
:1008E400F9D30B4A0B4C002301E013600432A242FB
:1008F400FBD3FFF7D7FF00F011F8FFF791FF704724
:100904000080012000000020000000208809000869
:100914000000002020000020FEE7000070B50D4D0F
:100924000D4C641BA4100026A64209D10B4D0C4C9F
:1009340000F018F8641BA4100026A64205D170BD6F
:1009440055F8043B98470136EEE755F8043B9847C1
:100954000136F2E7800900088009000880090008D0
:1009640084090008F8B500BFF8BC08BC9E4670476F
:0C097400F8B500BFF8BC08BC9E467047F8
:04098000B9010008B1
:0409840095010008D1
:04000005080008CD1A
:00000001FF
