:020000040800F2
:1000000000800120ED0300083D0400083D040008C5
:100010003D0400083D0400083D0400080000000005
:100020000000000000000000000000003D04000887
:100030003D040008000000003D0400083D040008E5
:100040003D0400083D0400083D0400083D0400088C
:100050003D0400083D0400083D0400083D0400087C
:100060003D0400083D0400083D0400083D0400086C
:100070003D0400083D0400083D0400083D0400085C
:100080003D0400083D0400083D0400080000000095
:100090000000000000000000000000003D04000817
:1000A0003D0400083D0400083D0400083D0400082C
:1000B0003D0400083D0400083D0400083D0400081C
:1000C0003D0400083D0400083D0400083D0400080C
:1000D0003D0400083D0400083D0400080000000045
:1000E0003D0400083D0400083D0400080000000035
:1000F0000000000000000000000000003D040008B7
:10010000000000003D0400083D0400083D04000814
:1001100000000000000000000000000000000000DF
:100120003D0400083D0400083D0400083D040008AB
:100130003D04000800000000000000000000000076
:100140000000000000000000000000003D04000866
:100150003D0400083D0400083D0400083D0400087B
:100160003D0400083D0400080000000000000000FD
:10017000000000000000000000000000000000007F
:10018000000000003D040008000000000000000026
:040190003D04000822
:1001940010B5054C237833B9044B13B10448AFF3BD
:1001A40000800123237010BD000000200000000027
:1001B4008804000808B5034B1BB103490348AFF397
:1001C400008008BD0000000004000020880400082E
:1001D40080B400AF3C4B5A683B493C4B13404B60E6
:1001E400394B5B68384A43F4AA735360364B1B6837
:1001F400354A43F48033136000BF334B1B6803F468
:100204000033002BF9D0304B5B682F4A43F4800352
:1002140053602D4B1B682C4A43F08073136000BF5E
:10022400294B1B6803F00073002BF9D0284B1B6883
:10023400274A23F007031360254B1B68244A23F045
:1002440005031360224B1B68214A43F00203136029
:100254001F4B1B681E4A43F4706313601A4B9B6860
:10026400194A23F003039360174B9B68164A43F023
:1002740002039360144B9B68134A23F001039360B9
:1002840000BF114B9B6803F00803002BF9D00E4B01
:100294009B680D4A23F0F00393600B4B9B680A4A5A
:1002A40023F4E0539360084B9B68074A43F480535C
:1002B4009360054B9B68044A23F46043936000BF3A
:1002C400BD465DF8047B7047003802400080FCFFA7
:1002D400003C024080B500AFFFF77AFF00F010F851
:1002E400064B1B6903F40053002B03D1002000F0DC
:1002F4004BF8F5E7012000F047F8F1E70008024069
:1003040080B400AF1D4B1B6B1C4A43F00103136305
:100314001B4B1B681A4A43F480631360184B1B6819
:10032400174A23F400631360154B5B68144A23F0E7
:1003340020035360124B9B68114A23F4406393607B
:100344000F4BDB680E4A23F44063D3600B4B1B6BEB
:100354000A4A43F0040313630A4B1B68094A23F057
:1003640040631360074BDB68064A23F04063D360A5
:1003740000BFBD465DF8047B704700BF00380240F3
:10038400000002400008024080B483B000AF03467E
:10039400FB71FB79012B06D0094B5B69084A43F0DA
:1003A4002003536106E0064B5B69054A23F02003F2
:1003B400536100BF00BF0C37BD465DF8047B704736
:1003C4000000024080B400AF064BD3F88830054AE1
:1003D40043F47003C2F8883000BFBD465DF8047B67
:1003E400704700BF00ED00E0DFF834D00D480E493F
:1003F4000E4A002302E0D458C4500433C4188C427B
:10040400F9D30B4A0B4C002301E013600432A242DF
:10041400FBD3FFF7D7FF00F011F8FFF75BFF70473E
:10042400008001200000002000000020A804000833
:10043400000000201C000020FEE7000070B50D4DF8
:100444000D4C641BA4100026A64209D10B4D0C4C84
:1004540000F018F8641BA4100026A64205D170BD54
:1004640055F8043B98470136EEE755F8043B9847A6
:100474000136F2E7A0040008A0040008A004000864
:10048400A4040008F8B500BFF8BC08BC9E46704739
:0C049400F8B500BFF8BC08BC9E467047DD
:0404A000B901000896
:0404A40095010008B6
:04000005080003EDFF
:00000001FF
