:020000040800F2
:10000000008001201906000869060008690600083A
:10001000690600086906000869060008000000007B
:100020000000000000000000000000006906000859
:100030006906000800000000690600085105000874
:1000400069060008690600086906000869060008D4
:1000500069060008690600086906000869060008C4
:1000600069060008690600086906000869060008B4
:1000700069060008690600086906000869060008A4
:10008000690600086906000869060008000000000B
:1000900000000000000000000000000069060008E9
:1000A0006906000869060008690600086906000874
:1000B0006906000869060008690600086906000864
:1000C0006906000869060008690600086906000854
:1000D00069060008690600086906000800000000BB
:1000E00069060008690600086906000800000000AB
:1000F0000000000000000000000000006906000889
:10010000000000006906000869060008690600088A
:1001100000000000000000000000000000000000DF
:1001200069060008690600086906000869060008F3
:100130006906000800000000000000000000000048
:100140000000000000000000000000006906000838
:1001500069060008690600086906000869060008C3
:1001600069060008690600080000000000000000A1
:10017000000000000000000000000000000000007F
:1001800000000000690600080000000000000000F8
:0401900069060008F4
:1001940010B5054C237833B9044B13B10448AFF3BD
:1001A40000800123237010BD000000200000000027
:1001B400B406000808B5034B1BB103490348AFF369
:1001C400008008BD0000000004000020B406000800
:1001D40080B400AF114B1B68104A23F0070313606F
:1001E4000E4B0E4A1B6813600C4B1B680B4A43F4FE
:1001F400706313600A4B1B68094A43F001031360E0
:1002040000BF074B1B6803F00103002BF9D000BFAC
:1002140000BFBD465DF8047B704700BF003C024050
:100224000038024090B482B000AF0446084611463C
:100234001A462346FB710346BB710B467B7113467A
:100244003B71FB79032B00F08E80032B00F3CE80EF
:10025400012B02D0022B43D0C8E0674B1B68664ACF
:1002640043F001031360654B1B687979BA79520036
:1002740001FA02F21146614A0B4313607B79012BA8
:1002840022D15E4B1B687979BA795200013201FAA6
:1002940002F2D2431146594A0B401360574B5B6834
:1002A400BA79012101FA02F2D2431146534A0B40B2
:1002B4005360524B9B683979BA79520001FA02F2C1
:1002C40011464E4A0B4393604C4BDB68397CBA7938
:1002D400520001FA02F21146484A0B43D36085E00A
:1002E400454B1B68444A43F002031360444B1B68AC
:1002F4007979BA79520001FA02F21146404A0B4365
:1003040013607B79012B22D13D4B1B687979BA7933
:100314005200013201FA02F2D2431146384A0B402C
:100324001360374B5B68BA79012101FA02F2D243B8
:100334001146334A0B405360314B9B683979BA7983
:10034400520001FA02F211462D4A0B4393602C4BE2
:10035400DB68397CBA79520001FA02F21146284A64
:100364000B43D36042E0244B1B68234A43F004034D
:100374001360244B1B687979BA79520001FA02F2AE
:100384001146204A0B4313607B79012B22D11D4B6C
:100394001B687979BA795200013201FA02F2D24328
:1003A4001146184A0B401360164B5B68BA79012159
:1003B40001FA02F2D2431146124A0B405360114B28
:1003C4009B683979BA79520001FA02F211460D4A52
:1003D4000B4393600B4BDB68397CBA79520001FA0A
:1003E40002F21146074A0B43D36000BF00BF08372F
:1003F400BD4690BC704700BF303802400000024048
:10040400000402400008024080B483B000AF0346F9
:100414000A46FB711346BB71FB79032B1CD0032BDB
:1004240025DC012B02D0022B0BD020E0134B5B699F
:10043400BA79012101FA02F21146104A4B40536184
:1004440015E00F4B5B69BA79012101FA02F21146FA
:100454000B4A4B4053610AE00A4B5B69BA790121AC
:1004640001FA02F21146074A4B40536100BF00BF34
:100474000C37BD465DF8047B704700BF00000240A6
:10048400000402400008024080B483B000AF034679
:10049400FB7197F90730002B0CDBFB7903F01F028B
:1004A400074997F907305B09012000FA02F260332B
:1004B40041F8232000BF0C37BD465DF8047B70472C
:1004C40000E100E080B483B000AF03463960FB7103
:1004D40097F90730002B0ADB3B68DAB20C4997F92D
:1004E40007301201D2B20B4483F800230AE03B68C0
:1004F400DAB20849FB7903F00F03043B1201D2B2CC
:100504000B441A7600BF0C37BD465DF8047B704778
:1005140000E100E000ED00E080B582B000AF78605B
:10052400094B00221A60084A7B68013B5360064B62
:1005340007221A6000214FF0FF30FFF7C3FF00BF0E
:100544000837BD4680BD00BF10E000E080B500AFB5
:100554004FF0FF30FFF798FF00F002F800BF80BDB6
:1005640080B400AF044B1B680133034A136000BF1F
:10057400BD465DF8047B70471C00002080B400AFCA
:10058400034B1B681846BD465DF8047B704700BFEB
:100594001C00002080B584B000AF7860FFF7EEFF48
:1005A400F86000BFFFF7EAFF0246FB68D31A7A68D7
:1005B4009A42F7D800BF00BF1037BD4680BD80B552
:1005C40082B002AFFFF704FE4FF47A50FFF7A4FFA6
:1005D400002300930023012205210120FFF722FEBE
:1005E40005210120FFF710FF6420FFF7D3FFF7E791
:1005F40080B400AF064BD3F88830054A43F4700347
:10060400C2F8883000BFBD465DF8047B704700BF68
:1006140000ED00E0DFF834D00D480E490E4A002307
:1006240002E0D458C4500433C4188C42F9D30B4AA2
:100634000B4C002301E013600432A242FBD3FFF70A
:10064400D7FF00F011F8FFF7BAFF704700800120D0
:100654000000002000000020D40600080000002054
:1006640020000020FEE7000070B50D4D0D4C641B0A
:10067400A4100026A64209D10B4D0C4C00F018F82A
:10068400641BA4100026A64205D170BD55F8043B96
:1006940098470136EEE755F8043B98470136F2E7F0
:1006A400CC060008CC060008CC060008D0060008DA
:1006B400F8B500BFF8BC08BC9E467047F8B500BF4B
:0806C400F8BC08BC9E4670471B
:0406CC00B901000868
:0406D0009501000888
:0400000508000619D0
:00000001FF
