:020000040800F2
:1000000000800120550F0008A50F0008A50F00086B
:10001000A50F0008A50F0008A50F000800000000AC
:10002000000000000000000000000000A50F000814
:10003000A50F000800000000A50F0008A50F00088C
:10004000A50F0008A50F0008A50F0008A50F0008C0
:10005000A50F0008A50F0008A50F0008A50F0008B0
:10006000A50F0008A50F0008A50F0008A50F0008A0
:10007000A50F0008A50F0008A50F0008A50F000890
:10008000A50F0008A50F0008A50F0008000000003C
:10009000000000000000000000000000A50F0008A4
:1000A000A50F0008A50F0008A50F0008A50F000860
:1000B0005B0E0008A50F0008A50F0008A50F00089B
:1000C000A50F0008A50F0008A50F0008A50F000840
:1000D000A50F0008A50F0008A50F000800000000EC
:1000E00019040008A50F0008A50F00080000000073
:1000F000000000000000000000000000A50F000844
:1001000000000000A50F0008A50F0008A50F0008BB
:1001100000000000000000000000000000000000DF
:10012000A50F0008A50F0008A50F0008A50F0008DF
:10013000A50F000800000000000000000000000003
:10014000000000000000000000000000A50F0008F3
:10015000A50F0008A50F0008A50F0008A50F0008AF
:10016000A50F0008A50F0008000000000000000017
:10017000000000000000000000000000000000007F
:1001800000000000A50F00080000000000000000B3
:04019000A50F0008AF
:1001A00010B5054C237833B9044B13B10448AFF3B1
:1001B00000800123237010BD6400002000000000B7
:1001C0006818000808B5034B1BB103490348AFF397
:1001D000008008BD000000006800002068180008CA
:1001E00001F0FF01102A2BDB10F0070F08D010F8E8
:1001F000013B013A8B422DD010F0070F42B3F6D1EC
:10020000F0B441EA012141EA014122F007047FF004
:1002100000070023F0E80256083C85EA010586EA5B
:10022000010685FA47F5A3FA87F586FA47F6A5FA97
:1002300087F68EB9EED1F0BC01F0FF0102F00702A3
:1002400032B110F8013B013A83EA010313B1F8D14E
:100250000020704701387047002D06BF354603382F
:10026000073815F0010F07D1013015F4807F02BF68
:10027000013015F4C03F0130F0BC0138704700BFB9
:1002800080B400AF114B1B68104A23F007031360C2
:100290000E4B0E4A1B6813600C4B1B680B4A43F451
:1002A000706313600A4B1B68094A43F00103136033
:1002B00000BF074B1B6803F00103002BF9D000BF00
:1002C00000BFBD465DF8047B704700BF003C0240A4
:1002D0000038024080B483B000AF0346FB7197F949
:1002E0000730002B0BDBFB7903F01F02074997F95E
:1002F00007305B09012000FA02F241F8232000BF19
:100300000C37BD465DF8047B704700BF00E100E09C
:1003100080B483B000AF0346FB7197F90730002B20
:100320000CDBFB7903F01F02074997F907305B09E3
:10033000012000FA02F2603341F8232000BF0C379D
:10034000BD465DF8047B704700E100E080B483B0F7
:1003500000AF03463960FB7197F90730002B0ADBC9
:100360003B68DAB20C4997F907301201D2B20B445C
:1003700083F800230AE03B68DAB20849FB7903F00E
:100380000F03043B1201D2B20B441A7600BF0C37A4
:10039000BD465DF8047B704700E100E000ED00E041
:1003A00080B500AF194B5B6C184A43F4804353642B
:1003B000174B5B69164A23F0F0035361144B5B69DA
:1003C000134A43F020035361124B1B68114A43F454
:1003D000005313600F4B5B680E4A43F400535360A5
:1003E0000C4BDB680B4A43F40053D360094B9B680A
:1003F000084A23F40053936001212820FFF7A6FF49
:100400002820FFF767FF00BF80BD00BF0038024013
:1004100000380140003C014080B500AF2820FFF7C4
:1004200077FF1A4B1B699B0803F00103184A1360FE
:10043000174B1A68174B1B689A421FD0134B1B6946
:10044000DB0803F00103124A1268934209D0124BF1
:100450001B68632B0EDC104B1B680A330E4A1360BB
:1004600008E00D4B1B68002B04DD0B4B1B680A3B9F
:10047000094A1360064B1B68064A1360074B5B6909
:10048000064A43F40053536100BF80BD0008024098
:10049000840000208000002088000020003C0140F3
:1004A00090B482B000AF0446084611461A4623466F
:1004B000FB710346BB710B467B7113463B71FB79A5
:1004C000032B00F08E80032B00F3CE80012B02D093
:1004D000022B43D0C8E0674B1B68664A43F0010318
:1004E0001360654B1B687979BA79520001FA02F200
:1004F0001146614A0B4313607B79012B22D15E4B7D
:100500001B687979BA795200013201FA02F2D243BA
:100510001146594A0B401360574B5B68BA79012169
:1005200001FA02F2D2431146534A0B405360524B38
:100530009B683979BA79520001FA02F211464E4AA3
:100540000B4393604C4BDB68397CBA79520001FA5B
:1005500002F21146484A0B43D36085E0454B1B68C5
:10056000444A43F002031360444B1B687979BA791B
:10057000520001FA02F21146404A0B4313607B79A4
:10058000012B22D13D4B1B687979BA795200013297
:1005900001FA02F2D2431146384A0B401360374B3E
:1005A0005B68BA79012101FA02F2D2431146334A5B
:1005B0000B405360314B9B683979BA79520001FA8C
:1005C00002F211462D4A0B4393602C4BDB68397CB9
:1005D000BA79520001FA02F21146284A0B43D3605D
:1005E00042E0244B1B68234A43F004031360244B6E
:1005F0001B687979BA79520001FA02F21146204A51
:100600000B4313607B79012B22D11D4B1B68797939
:10061000BA795200013201FA02F2D2431146184A65
:100620000B401360164B5B68BA79012101FA02F2A4
:10063000D2431146124A0B405360114B9B683979E3
:10064000BA79520001FA02F211460D4A0B43936047
:100650000B4BDB68397CBA79520001FA02F2114681
:10066000074A0B43D36000BF00BF0837BD4690BCAC
:10067000704700BF303802400000024000040240D2
:100680000008024080B483B000AF0346FB71FB79E1
:1006900003F00103002B06D0244B5B69234A43F08F
:1006A0001003536105E0214B5B69204A23F01003DE
:1006B0005361FB7903F00203002B06D01C4B5B69EE
:1006C0001B4A43F00103536105E0194B5B69184A6B
:1006D00023F001035361FB7903F00403002B06D0E0
:1006E000144B5B69134A43F00103536105E0114B5E
:1006F0005B69104A23F001035361FB7903F008039F
:10070000002B06D00B4B5B690A4A43F0020353618E
:1007100005E0084B5B69074A23F00203536100BF01
:100720000C37BD465DF8047B704700BF00000240F7
:10073000000402400008024080B582B000AF0346CA
:10074000FB710E4B5B690D4A23F0010353610B4BA8
:100750005B690A4A43F001035361FB791846FFF7CE
:1007600091FF022000F04EFB044B5B69034A23F02B
:100770000103536100BF0837BD4680BD0000024041
:1007800080B582B002AF0023009301230122002133
:100790000120FFF785FE00230093012301220121A0
:1007A0000120FFF77DFE0023009301230122042195
:1007B0000120FFF775FE0023009301230122002191
:1007C0000220FFF76DFE0023009301230122012187
:1007D0000320FFF765FE002300930123012200217F
:1007E0000320FFF75DFE0320FFF7A6FF0320FFF7BE
:1007F000A3FF0320FFF7A0FF0220FFF79DFF0220C9
:10080000FFF79AFF0820FFF797FF0020FFF794FFFC
:100810000820FFF791FF0020FFF78EFF0120FFF770
:100820008BFF0020FFF788FF0C20FFF785FF00BF3C
:10083000BD4680BD80B584B000AF03460A46FB715B
:100840001346BB712C4B5B692B4A23F002035361A7
:10085000BB79013B032B4BD801A252F823F000BF18
:100860007108000891080008B1080008D1080008C4
:10087000FB79803BFB73FB7980331B11BB73BB7B24
:100880001846FFF759FFFB7B1846FFF755FF2FE08F
:10089000FB79403BFB73FB79C0331B11BB73BB7B04
:1008A0001846FFF749FFFB7B1846FFF745FF1FE09F
:1008B000FB796C3BFB73FB7994331B11BB73BB7BE4
:1008C0001846FFF739FFFB7B1846FFF735FF0FE0AF
:1008D000FB792C3BFB73FB79D4331B11BB73BB7BC4
:1008E0001846FFF729FFFB7B1846FFF725FF00BFDF
:1008F00000BF1037BD4680BD0000024080B584B007
:1009000000AF0346FB71FB791B09FB73FB79BB73DB
:10091000084B5B69074A43F002035361FB7B1846AF
:10092000FFF70AFFBB7B1846FFF706FF00BF103733
:10093000BD4680BD0000024080B584B000AF786045
:100940007B68FB6006E0FB685A1CFA601B7818465F
:10095000FFF7D4FFFB681B78002BF4D100BF00BF6A
:100960001037BD4680BD000090B585B000AF04468D
:10097000084611461A462346FB710346BB710B46D7
:100980007B7113463B71FB79032B00F03581032B00
:1009900000F3C081012B03D0022B00F08F80B9E15E
:1009A0000420FFF7C9FE0020FFF7C6FE914B5B69EC
:1009B000904A43F002035361BB791B09FB73BB7977
:1009C000BB73FB7B1846FFF7B7FEBB7B1846FFF7F0
:1009D000B3FE7B791B09FB737B79BB73FB7B1846EA
:1009E000FFF7AAFEBB7B1846FFF7A6FE3B791B0963
:1009F000FB733B79BB73FB7B1846FFF79DFEBB7B0C
:100A00001846FFF799FE97F820301B09FB7397F8FB
:100A10002030BB73FB7B1846FFF78EFEBB7B18466E
:100A2000FFF78AFE97F824301B09FB7397F82430F0
:100A3000BB73FB7B1846FFF77FFEBB7B1846FFF7B7
:100A40007BFE97F828301B09FB7397F82830BB739F
:100A5000FB7B1846FFF770FEBB7B1846FFF76CFE6A
:100A600097F82C301B09FB7397F82C30BB73FB7B7A
:100A70001846FFF761FEBB7B1846FFF75DFE97F84F
:100A800030301B09FB7397F83030BB73FB7B184683
:100A9000FFF752FEBB7B1846FFF74EFE554B5B69D6
:100AA000544A23F0020353610020FFF745FE012062
:100AB000FFF742FE642000F0A5F92BE10420FFF7C8
:100AC0003BFE0820FFF738FE4A4B5B69494A43F07A
:100AD00002035361BB791B09FB73BB79BB73FB7BBF
:100AE0001846FFF729FEBB7B1846FFF725FE7B79EA
:100AF0001B09FB737B79BB73FB7B1846FFF71CFE5E
:100B0000BB7B1846FFF718FE7B791B09FB737B79CB
:100B1000BB73FB7B1846FFF70FFEBB7B1846FFF746
:100B20000BFE3B791B09FB733B79BB73FB7B1846C0
:100B3000FFF702FEBB7B1846FFF7FEFD97F820305B
:100B40001B09FB7397F82030BB73FB7B1846FFF73C
:100B5000F3FDBB7B1846FFF7EFFD97F824301B0928
:100B6000FB7397F82430BB73FB7B1846FFF7E4FD5B
:100B7000BB7B1846FFF7E0FD97F828301B09FB7395
:100B800097F82830BB73FB7B1846FFF7D5FDBB7B7E
:100B90001846FFF7D1FD97F82C301B09FB7397F827
:100BA0002C30BB73FB7B1846FFF7C6FDBB7B18469A
:100BB000FFF7C2FD97F830301B09FB7397F8303010
:100BC000BB73FB7B1846FFF7B7FDBB7B1846FFF7EF
:100BD000B3FD084B5B69074A23F002035361002011
:100BE000FFF7AAFD0120FFF7A7FD642000F00AF936
:100BF00090E000BF000002400420FFF79DFDFF20B1
:100C0000FFF79AFD454B5B69444A43F00203536189
:100C1000BB791B09FB73BB79BB73FB7B1846FFF7E2
:100C20008BFDBB7B1846FFF787FD7B791B09FB73A8
:100C30007B79BB73FB7B1846FFF77EFDBB7B1846B9
:100C4000FFF77AFD3B791B09FB733B79BB73FB7B99
:100C50001846FFF771FDBB7B1846FFF76DFD97F84F
:100C600020301B09FB7397F82030BB73FB7B1846C1
:100C7000FFF762FDBB7B1846FFF75EFD97F8243057
:100C80001B09FB7397F82430BB73FB7B1846FFF7F7
:100C900053FDBB7B1846FFF74FFD97F828301B0923
:100CA000FB7397F82830BB73FB7B1846FFF744FDB6
:100CB000BB7B1846FFF740FD97F82C301B09FB73F0
:100CC00097F82C30BB73FB7B1846FFF735FDBB7BD9
:100CD0001846FFF731FD97F830301B09FB7397F882
:100CE0003030BB73FB7B1846FFF726FDBB7B1846F5
:100CF000FFF722FD094B5B69084A23F002035361A9
:100D00000020FFF719FD0120FFF716FD642000F019
:100D100079F800BF00BF1437BD4690BD0000024007
:100D200080B582B000AF0346FB710C4B5B690B4A88
:100D300043F0020353610020FFF7FEFCFB79013B07
:100D4000DBB21846FFF7F8FC044B5B69034A23F05B
:100D50000203536100BF0837BD4680BD000002405A
:100D600080B483B000AF0346FB7197F90730002BC6
:100D70000CDBFB7903F01F02074997F907305B0989
:100D8000012000FA02F2603341F8232000BF0C3743
:100D9000BD465DF8047B704700E100E080B483B09D
:100DA00000AF7860164B1B6C154A43F001031364C7
:100DB0004FF080431B684FF0804223F01003136014
:100DC0004FF080431B684FF0804243F008031360EC
:100DD0004FF080435B684FF0804223F07003536014
:100DE0004FF0804300229A624FF080427B68013BC3
:100DF000D36200BF0C37BD465DF8047B704700BF6F
:100E00000038024080B483B000AF78607A6813463F
:100E10009B0013445B004FF08042013B93624FF014
:100E200080431B684FF0804243F00103136000BF12
:100E30004FF080431B6903F00103002BF8D04FF003
:100E400080431B694FF0804223F00103136100BF10
:100E50000C37BD465DF8047B704780B500AF1C20A1
:100E6000FFF77EFF4FF080431B694FF0804223F075
:100E70000103136100BF80BD80B586B006AFFFF7E8
:100E8000FFF94FF4C860FFF789FF012300930023A7
:100E900000220D210320FFF703FBFFF781FAFFF784
:100EA0006FFC0023049300230393042302930E2377
:100EB00001931F2300931F231F220A210120FFF704
:100EC00053FD00230493002303930E2302930E2368
:100ED00001931F23009315231F220E210220FFF7E9
:100EE00043FD01210120FFF7A5FC0D48FFF724FD7C
:100EF0000120FFF715FF02210120FFF79BFC094BA2
:100F00001B681A460849094800F072F80748FFF7BD
:100F100013FD0220FFF704FFC820FFF773FFEAE785
:100F200080180008880000208C1800089C00002011
:100F300080B400AF064BD3F88830054A43F4700301
:100F4000C2F8883000BFBD465DF8047B704700BF23
:100F500000ED00E0DFF834D00D480E490E4A0023C2
:100F600002E0D458C4500433C4188C42F9D30B4A5D
:100F70000B4C002301E013600432A242FBD3FFF7C5
:100F8000D7FF00F011F8FFF777FF704700800120CE
:100F90000000002064000020D41800086400002035
:100FA000BC000020FEE7000070B50D4D0D4C641B29
:100FB000A4100026A64209D10B4D0C4C00F054FCA5
:100FC000641BA4100026A64205D170BD55F8043B51
:100FD00098470136EEE755F8043B98470136F2E7AB
:100FE000CC180008CC180008CC180008D01800084D
:100FF0000EB400B59CB01DAB029006906FF000419E
:10100000094807910491094953F8042B0591006898
:10101000019302A900F068F8029B00221A701CB02C
:101020005DF804EB03B07047000000200802FFFFEA
:101030002DE9F0478E689E4282460C4690461F4638
:1010400038D88A8912F4906F32D025680969A5EBE7
:101050000109656905EB450505EBD57501334B4481
:101060006D109D4238BF1D46530531D5294600F00D
:1010700047FB064650B90C23CAF80030A38943F059
:101080004003A3814FF0FF30BDE8F08721694A4655
:1010900000F0BEFAA38923F4906343F08003A38198
:1010A000266165614E44A5EB09052660A5603E46B4
:1010B000BE4200D93E4632462068414600F0B6FAAC
:1010C000A36822689B1B3244A36022600020DBE7F8
:1010D0002A4600F06FFB06460028E1D12169504600
:1010E00000F0BEFAC7E700002DE9F04F98468B8963
:1010F0001B069DB007460D4614460ED50B6963B915
:10110000402100F0FDFA2860286120B90C233B60E3
:101110004FF0FF30D1E040236B610023099320237F
:101120008DF82930CDF80C803023DFF8A8818DF8B8
:101130002A304FF0010923469A4613F8012B0AB1D1
:10114000252AF9D1BAEB040B0BD05B46224629467F
:101150003846FFF76DFF013000F0AA80099A5A4423
:1011600009929AF80030002B00F0A28000234FF083
:10117000FF32CDE905230AF1010A049307938DF8A4
:1011800053301A935446052214F8011B5148FFF7B7
:1011900027F8049AD8B9D00644BF20238DF85330DD
:1011A000110744BF2B238DF853309AF800302A2BB7
:1011B00015D0079A544600204FF00A0C214611F82A
:1011C000013B303B092B4ED9B0B1079214E0A0EBA4
:1011D000080309FA03F313430493A246D2E7039BDF
:1011E000191D1B680391002BBBBF5B4242F002023A
:1011F00007930793B8BF049223782E2B0CD1637802
:101200002A2B35D1039B1A1D1B680392002BB8BFF4
:101210004FF0FF3302340593DFF8C8A02178032292
:101220005046FEF7DDFF40B14023A0EB0A0003FA71
:1012300000F0049B03430134049314F8011B264877
:101240008DF828100622FEF7CBFF002838D0234B5C
:101250001BBB039B073323F0070308330393099B4E
:101260003344099367E70CFB02320C460120A5E7E3
:1012700000230134059319464FF00A0C204610F85C
:10128000012B303A092A03D9002BC5D00591C3E7B9
:101290000CFB012104460123F0E703AB00932A462F
:1012A0000F4B04A93846AFF30080421C0646D6D146
:1012B000AB895B063FF52CAF09981DB0BDE8F08FF8
:1012C00003AB00932A46064B04A9384600F07AF88F
:1012D000EBE700BF96180008A01800080000000007
:1012E000311000089C1800082DE9F0471646994671
:1012F0008A680B69DDF820809342B8BF13463360DB
:1013000091F8432007460C460AB101333360236845
:10131000990642BF336802333360256815F006052D
:1013200006D104F1190AE36832689B1AAB4226DC45
:1013300094F84320131E226818BF012392062BD471
:1013400004F1430249463846C04701301ED02368A5
:10135000E568326803F00603042B08BFAD1AA368E2
:1013600022690CBF25EAE57500259342C4BF9B1A8C
:10137000ED1800261A34B5421AD1002008E00123E6
:10138000524649463846C047013003D14FF0FF303E
:10139000BDE8F0870135C6E7E1185A1C302081F816
:1013A0004300224494F8451082F843100233C7E703
:1013B0000123224649463846C0470130E6D001366F
:1013C000D9E700002DE9FF470C469146277E0C998E
:1013D000782F80469A4604F1430207D8622F0AD834
:1013E000002F00F0D880582F00F0A38004F14206AF
:1013F00084F842703AE0A7F16303152BF6D801A0F8
:1014000050F823F05D14000871140008ED13000873
:10141000ED130008ED130008ED1300087114000827
:10142000ED130008ED130008ED130008ED1300089C
:101430007D150008A11400085F150008ED130008D1
:10144000ED1300089F150008ED130008A114000813
:10145000ED130008ED130008671500080B681A1D4E
:101460001B680A6004F1420684F842300123A3E0BD
:10147000256808682E0600F104030AD505680B608C
:10148000002D03DA2D236D4284F843305E480A2391
:1014900019E015F0400F05680B6018BF2DB2EFE79B
:1014A0000B682568181D0860280601D51D6802E034
:1014B0006906FBD51D8854486F2F0CBF08230A23EB
:1014C000002184F843106668A660002EA2BF216840
:1014D00021F0040121600DB9002E4DD01646B5FB58
:1014E000F3F103FB1157C75D06F8017D2F46BB42A0
:1014F0000D46F4D9082B0BD12368DF0708D52369E3
:1015000061689942DEBF302306F8013C06F1FF36E0
:10151000921B2261CDF800A04B4603AA214640460B
:10152000FFF7E2FE01304CD14FF0FF3004B0BDE8D0
:10153000F087354884F8457023680E681F0656F812
:10154000045B0E6014D5D90744BF43F02003236029
:101550001DB9236823F0200323601023B0E723681C
:1015600043F0200323607823284884F84530E3E7DC
:101570005E0648BFADB2E6E71646BBE70B682668D5
:1015800060691D1D0D6035061B6801D5186002E0FD
:101590007106FBD51880002323611646BAE70B6855
:1015A0001A1D0A601E68626800213046FEF718FEA8
:1015B00008B1801B606063682361002384F84330B6
:1015C000A8E72369324649464046D0470130ABD0B0
:1015D00023689B0713D4E068039B9842B8BF184662
:1015E000A4E70123324649464046D04701309BD00C
:1015F0000135E36803995B1AAB42F2DCEBE70025A7
:1016000004F11906F5E700BFA7180008B81800088C
:101610000A44914200F1FF3300D1704710B511F830
:10162000014B03F8014F9142F9D110BD884210B52A
:1016300001EB020402D98442234607D8431EA1428B
:1016400008D011F8012B03F8012FF8E702440146F6
:101650008A4200D110BD13F8014D02F8014DF7E7A1
:1016600037B5002948D051F8043C0190002BA1F176
:101670000404B8BFE41800F0D3F8204A01981368B6
:10168000154633B96360146003B0BDE8304000F024
:10169000CDB8A3420BD921686218934204BF1A68DF
:1016A0005B68636004BF521822602C60ECE71A4646
:1016B0005B680BB1A342FAD911685518A5420BD14A
:1016C000246821445418A3421160DDD11C685B6872
:1016D000536021441160D7E702D90C230360D3E79C
:1016E000256861198B4204BF19685B68636004BF99
:1016F000491921605460C7E703B030BD8C00002059
:10170000F8B5CD1C25F0030508350C2D38BF0C2588
:10171000002D064601DBA94203D90C2333600020CB
:10172000F8BD00F07DF821490A6814469CB9204FA5
:101730003B6823B92146304600F062F838602946FC
:10174000304600F05DF8431C23D10C233360304653
:1017500000F06CF8E3E723685B1B17D40B2B03D96D
:1017600023601C44256004E06368A2420CBF0B6048
:101770005360304600F05AF804F10B00231D20F0AE
:101780000700C21ACCD01B1AA350C9E722466468CE
:10179000CCE7C41C24F00304A042E3D0211A304655
:1017A00000F02EF80130DDD1CFE700BF8C00002023
:1017B00090000020F8B5074614460E4621B9BDE852
:1017C000F8401146FFF79CBF22B9FFF749FF2546B5
:1017D0002846F8BD00F030F8A0420FD22146384626
:1017E000FFF78EFF05460028F2D031462246FFF76C
:1017F0000FFF31463846FFF733FFE9E73546E7E7A5
:1018000038B5064D0023044608462B6000F01EF84C
:10181000431C02D12B6803B1236038BDAC0000200B
:10182000014800F011B800BFB4000020014800F0EA
:101830000CB800BFB400002051F8043C181F002B66
:10184000BCBF0B58C018704770477047044B1968ED
:10185000024609B903491960186802441A607047C2
:1018600094000020C0000020F8B500BFF8BC08BC00
:101870009E467047F8B500BFF8BC08BC9E4670474E
:1018800053544D333246343031000000636F6E7470
:1018900061723A257500232D302B2000686C4C00B6
:1018A0006566674546470030313233343536373860
:1018B00039414243444546003031323334353637BE
:0C18C00038396162636465660000000056
:0418CC00C50100084A
:0418D000A10100086A
:1018D40004000020000000000000000000000000E0
:1018E40000000000000000000000000000000000F4
:1018F40000000000000000000000000000000000E4
:1019040000000000000000000000000000000000D3
:1019140000000000000000000000000000000000C3
:1019240000000000000000000000000000000000B3
:0419340000000000AF
:0400000508000F558B
:00000001FF
